{
  "_format": "hh3-artifact-1",
  "contractName": "SpectraFounderSeason1_1155",
  "sourceName": "contracts/SpectraFounderSeason1_1155.sol",
  "abi": [
    {
      "inputs": [
        {
          "internalType": "address",
          "name": "admin",
          "type": "address"
        },
        {
          "internalType": "address",
          "name": "submissionRegistryAddress",
          "type": "address"
        },
        {
          "internalType": "string",
          "name": "initialBaseURI",
          "type": "string"
        },
        {
          "internalType": "string",
          "name": "initialContractMetadataURI",
          "type": "string"
        },
        {
          "internalType": "uint256",
          "name": "initialMaxSupply",
          "type": "uint256"
        }
      ],
      "stateMutability": "nonpayable",
      "type": "constructor"
    },
    {
      "inputs": [],
      "name": "AccessControlBadConfirmation",
      "type": "error"
    },
    {
      "inputs": [
        {
          "internalType": "address",
          "name": "account",
          "type": "address"
        },
        {
          "internalType": "bytes32",
          "name": "neededRole",
          "type": "bytes32"
        }
      ],
      "name": "AccessControlUnauthorizedAccount",
      "type": "error"
    },
    {
      "inputs": [
        {
          "internalType": "address",
          "name": "sender",
          "type": "address"
        },
        {
          "internalType": "uint256",
          "name": "balance",
          "type": "uint256"
        },
        {
          "internalType": "uint256",
          "name": "needed",
          "type": "uint256"
        },
        {
          "internalType": "uint256",
          "name": "tokenId",
          "type": "uint256"
        }
      ],
      "name": "ERC1155InsufficientBalance",
      "type": "error"
    },
    {
      "inputs": [
        {
          "internalType": "address",
          "name": "approver",
          "type": "address"
        }
      ],
      "name": "ERC1155InvalidApprover",
      "type": "error"
    },
    {
      "inputs": [
        {
          "internalType": "uint256",
          "name": "idsLength",
          "type": "uint256"
        },
        {
          "internalType": "uint256",
          "name": "valuesLength",
          "type": "uint256"
        }
      ],
      "name": "ERC1155InvalidArrayLength",
      "type": "error"
    },
    {
      "inputs": [
        {
          "internalType": "address",
          "name": "operator",
          "type": "address"
        }
      ],
      "name": "ERC1155InvalidOperator",
      "type": "error"
    },
    {
      "inputs": [
        {
          "internalType": "address",
          "name": "receiver",
          "type": "address"
        }
      ],
      "name": "ERC1155InvalidReceiver",
      "type": "error"
    },
    {
      "inputs": [
        {
          "internalType": "address",
          "name": "sender",
          "type": "address"
        }
      ],
      "name": "ERC1155InvalidSender",
      "type": "error"
    },
    {
      "inputs": [
        {
          "internalType": "address",
          "name": "operator",
          "type": "address"
        },
        {
          "internalType": "address",
          "name": "owner",
          "type": "address"
        }
      ],
      "name": "ERC1155MissingApprovalForAll",
      "type": "error"
    },
    {
      "inputs": [],
      "name": "EnforcedPause",
      "type": "error"
    },
    {
      "inputs": [],
      "name": "ExpectedPause",
      "type": "error"
    },
    {
      "inputs": [],
      "name": "InvalidAirdrop",
      "type": "error"
    },
    {
      "inputs": [],
      "name": "SeasonAlreadyClosed",
      "type": "error"
    },
    {
      "inputs": [],
      "name": "SeasonSupplyExceeded",
      "type": "error"
    },
    {
      "inputs": [],
      "name": "SubmissionAlreadyMinted",
      "type": "error"
    },
    {
      "inputs": [],
      "name": "SubmissionApplicantMismatch",
      "type": "error"
    },
    {
      "inputs": [],
      "name": "SubmissionNotApproved",
      "type": "error"
    },
    {
      "anonymous": false,
      "inputs": [
        {
          "indexed": true,
          "internalType": "uint256",
          "name": "tokenId",
          "type": "uint256"
        },
        {
          "indexed": false,
          "internalType": "uint256",
          "name": "recipientCount",
          "type": "uint256"
        }
      ],
      "name": "AirdropExecuted",
      "type": "event"
    },
    {
      "anonymous": false,
      "inputs": [
        {
          "indexed": true,
          "internalType": "address",
          "name": "account",
          "type": "address"
        },
        {
          "indexed": true,
          "internalType": "address",
          "name": "operator",
          "type": "address"
        },
        {
          "indexed": false,
          "internalType": "bool",
          "name": "approved",
          "type": "bool"
        }
      ],
      "name": "ApprovalForAll",
      "type": "event"
    },
    {
      "anonymous": false,
      "inputs": [
        {
          "indexed": false,
          "internalType": "string",
          "name": "newBaseURI",
          "type": "string"
        }
      ],
      "name": "BaseURIUpdated",
      "type": "event"
    },
    {
      "anonymous": false,
      "inputs": [
        {
          "indexed": false,
          "internalType": "string",
          "name": "contractMetadataURI",
          "type": "string"
        }
      ],
      "name": "ContractMetadataUpdated",
      "type": "event"
    },
    {
      "anonymous": false,
      "inputs": [
        {
          "indexed": true,
          "internalType": "uint256",
          "name": "submissionId",
          "type": "uint256"
        },
        {
          "indexed": true,
          "internalType": "uint256",
          "name": "tokenId",
          "type": "uint256"
        },
        {
          "indexed": true,
          "internalType": "address",
          "name": "recipient",
          "type": "address"
        }
      ],
      "name": "FounderMinted",
      "type": "event"
    },
    {
      "anonymous": false,
      "inputs": [
        {
          "indexed": false,
          "internalType": "address",
          "name": "account",
          "type": "address"
        }
      ],
      "name": "Paused",
      "type": "event"
    },
    {
      "anonymous": false,
      "inputs": [
        {
          "indexed": true,
          "internalType": "bytes32",
          "name": "role",
          "type": "bytes32"
        },
        {
          "indexed": true,
          "internalType": "bytes32",
          "name": "previousAdminRole",
          "type": "bytes32"
        },
        {
          "indexed": true,
          "internalType": "bytes32",
          "name": "newAdminRole",
          "type": "bytes32"
        }
      ],
      "name": "RoleAdminChanged",
      "type": "event"
    },
    {
      "anonymous": false,
      "inputs": [
        {
          "indexed": true,
          "internalType": "bytes32",
          "name": "role",
          "type": "bytes32"
        },
        {
          "indexed": true,
          "internalType": "address",
          "name": "account",
          "type": "address"
        },
        {
          "indexed": true,
          "internalType": "address",
          "name": "sender",
          "type": "address"
        }
      ],
      "name": "RoleGranted",
      "type": "event"
    },
    {
      "anonymous": false,
      "inputs": [
        {
          "indexed": true,
          "internalType": "bytes32",
          "name": "role",
          "type": "bytes32"
        },
        {
          "indexed": true,
          "internalType": "address",
          "name": "account",
          "type": "address"
        },
        {
          "indexed": true,
          "internalType": "address",
          "name": "sender",
          "type": "address"
        }
      ],
      "name": "RoleRevoked",
      "type": "event"
    },
    {
      "anonymous": false,
      "inputs": [
        {
          "indexed": true,
          "internalType": "uint256",
          "name": "seasonId",
          "type": "uint256"
        }
      ],
      "name": "SeasonClosed",
      "type": "event"
    },
    {
      "anonymous": false,
      "inputs": [
        {
          "indexed": true,
          "internalType": "address",
          "name": "operator",
          "type": "address"
        },
        {
          "indexed": true,
          "internalType": "address",
          "name": "from",
          "type": "address"
        },
        {
          "indexed": true,
          "internalType": "address",
          "name": "to",
          "type": "address"
        },
        {
          "indexed": false,
          "internalType": "uint256[]",
          "name": "ids",
          "type": "uint256[]"
        },
        {
          "indexed": false,
          "internalType": "uint256[]",
          "name": "values",
          "type": "uint256[]"
        }
      ],
      "name": "TransferBatch",
      "type": "event"
    },
    {
      "anonymous": false,
      "inputs": [
        {
          "indexed": true,
          "internalType": "address",
          "name": "operator",
          "type": "address"
        },
        {
          "indexed": true,
          "internalType": "address",
          "name": "from",
          "type": "address"
        },
        {
          "indexed": true,
          "internalType": "address",
          "name": "to",
          "type": "address"
        },
        {
          "indexed": false,
          "internalType": "uint256",
          "name": "id",
          "type": "uint256"
        },
        {
          "indexed": false,
          "internalType": "uint256",
          "name": "value",
          "type": "uint256"
        }
      ],
      "name": "TransferSingle",
      "type": "event"
    },
    {
      "anonymous": false,
      "inputs": [
        {
          "indexed": false,
          "internalType": "string",
          "name": "value",
          "type": "string"
        },
        {
          "indexed": true,
          "internalType": "uint256",
          "name": "id",
          "type": "uint256"
        }
      ],
      "name": "URI",
      "type": "event"
    },
    {
      "anonymous": false,
      "inputs": [
        {
          "indexed": false,
          "internalType": "address",
          "name": "account",
          "type": "address"
        }
      ],
      "name": "Unpaused",
      "type": "event"
    },
    {
      "inputs": [],
      "name": "AIRDROP_ROLE",
      "outputs": [
        {
          "internalType": "bytes32",
          "name": "",
          "type": "bytes32"
        }
      ],
      "stateMutability": "view",
      "type": "function"
    },
    {
      "inputs": [],
      "name": "CLOSER_ROLE",
      "outputs": [
        {
          "internalType": "bytes32",
          "name": "",
          "type": "bytes32"
        }
      ],
      "stateMutability": "view",
      "type": "function"
    },
    {
      "inputs": [],
      "name": "DEFAULT_ADMIN_ROLE",
      "outputs": [
        {
          "internalType": "bytes32",
          "name": "",
          "type": "bytes32"
        }
      ],
      "stateMutability": "view",
      "type": "function"
    },
    {
      "inputs": [],
      "name": "PAUSER_ROLE",
      "outputs": [
        {
          "internalType": "bytes32",
          "name": "",
          "type": "bytes32"
        }
      ],
      "stateMutability": "view",
      "type": "function"
    },
    {
      "inputs": [],
      "name": "URI_MANAGER_ROLE",
      "outputs": [
        {
          "internalType": "bytes32",
          "name": "",
          "type": "bytes32"
        }
      ],
      "stateMutability": "view",
      "type": "function"
    },
    {
      "inputs": [
        {
          "internalType": "address[]",
          "name": "recipients",
          "type": "address[]"
        },
        {
          "internalType": "uint256",
          "name": "tokenId",
          "type": "uint256"
        }
      ],
      "name": "airdrop",
      "outputs": [],
      "stateMutability": "nonpayable",
      "type": "function"
    },
    {
      "inputs": [
        {
          "internalType": "address",
          "name": "account",
          "type": "address"
        },
        {
          "internalType": "uint256",
          "name": "id",
          "type": "uint256"
        }
      ],
      "name": "balanceOf",
      "outputs": [
        {
          "internalType": "uint256",
          "name": "",
          "type": "uint256"
        }
      ],
      "stateMutability": "view",
      "type": "function"
    },
    {
      "inputs": [
        {
          "internalType": "address[]",
          "name": "accounts",
          "type": "address[]"
        },
        {
          "internalType": "uint256[]",
          "name": "ids",
          "type": "uint256[]"
        }
      ],
      "name": "balanceOfBatch",
      "outputs": [
        {
          "internalType": "uint256[]",
          "name": "",
          "type": "uint256[]"
        }
      ],
      "stateMutability": "view",
      "type": "function"
    },
    {
      "inputs": [
        {
          "internalType": "address",
          "name": "account",
          "type": "address"
        },
        {
          "internalType": "uint256",
          "name": "id",
          "type": "uint256"
        },
        {
          "internalType": "uint256",
          "name": "value",
          "type": "uint256"
        }
      ],
      "name": "burn",
      "outputs": [],
      "stateMutability": "nonpayable",
      "type": "function"
    },
    {
      "inputs": [
        {
          "internalType": "address",
          "name": "account",
          "type": "address"
        },
        {
          "internalType": "uint256[]",
          "name": "ids",
          "type": "uint256[]"
        },
        {
          "internalType": "uint256[]",
          "name": "values",
          "type": "uint256[]"
        }
      ],
      "name": "burnBatch",
      "outputs": [],
      "stateMutability": "nonpayable",
      "type": "function"
    },
    {
      "inputs": [],
      "name": "closeSeason",
      "outputs": [],
      "stateMutability": "nonpayable",
      "type": "function"
    },
    {
      "inputs": [],
      "name": "contractMetadataURI",
      "outputs": [
        {
          "internalType": "string",
          "name": "",
          "type": "string"
        }
      ],
      "stateMutability": "view",
      "type": "function"
    },
    {
      "inputs": [
        {
          "internalType": "uint256",
          "name": "id",
          "type": "uint256"
        }
      ],
      "name": "exists",
      "outputs": [
        {
          "internalType": "bool",
          "name": "",
          "type": "bool"
        }
      ],
      "stateMutability": "view",
      "type": "function"
    },
    {
      "inputs": [
        {
          "internalType": "address",
          "name": "wallet",
          "type": "address"
        }
      ],
      "name": "getMintedTokenIdsByWallet",
      "outputs": [
        {
          "internalType": "uint256[]",
          "name": "",
          "type": "uint256[]"
        }
      ],
      "stateMutability": "view",
      "type": "function"
    },
    {
      "inputs": [
        {
          "internalType": "bytes32",
          "name": "role",
          "type": "bytes32"
        }
      ],
      "name": "getRoleAdmin",
      "outputs": [
        {
          "internalType": "bytes32",
          "name": "",
          "type": "bytes32"
        }
      ],
      "stateMutability": "view",
      "type": "function"
    },
    {
      "inputs": [
        {
          "internalType": "bytes32",
          "name": "role",
          "type": "bytes32"
        },
        {
          "internalType": "address",
          "name": "account",
          "type": "address"
        }
      ],
      "name": "grantRole",
      "outputs": [],
      "stateMutability": "nonpayable",
      "type": "function"
    },
    {
      "inputs": [
        {
          "internalType": "bytes32",
          "name": "role",
          "type": "bytes32"
        },
        {
          "internalType": "address",
          "name": "account",
          "type": "address"
        }
      ],
      "name": "hasRole",
      "outputs": [
        {
          "internalType": "bool",
          "name": "",
          "type": "bool"
        }
      ],
      "stateMutability": "view",
      "type": "function"
    },
    {
      "inputs": [
        {
          "internalType": "address",
          "name": "account",
          "type": "address"
        },
        {
          "internalType": "address",
          "name": "operator",
          "type": "address"
        }
      ],
      "name": "isApprovedForAll",
      "outputs": [
        {
          "internalType": "bool",
          "name": "",
          "type": "bool"
        }
      ],
      "stateMutability": "view",
      "type": "function"
    },
    {
      "inputs": [],
      "name": "maxSupply",
      "outputs": [
        {
          "internalType": "uint256",
          "name": "",
          "type": "uint256"
        }
      ],
      "stateMutability": "view",
      "type": "function"
    },
    {
      "inputs": [
        {
          "internalType": "uint256",
          "name": "submissionId",
          "type": "uint256"
        }
      ],
      "name": "mintFounder",
      "outputs": [
        {
          "internalType": "uint256",
          "name": "tokenId",
          "type": "uint256"
        }
      ],
      "stateMutability": "nonpayable",
      "type": "function"
    },
    {
      "inputs": [],
      "name": "name",
      "outputs": [
        {
          "internalType": "string",
          "name": "",
          "type": "string"
        }
      ],
      "stateMutability": "view",
      "type": "function"
    },
    {
      "inputs": [],
      "name": "pause",
      "outputs": [],
      "stateMutability": "nonpayable",
      "type": "function"
    },
    {
      "inputs": [],
      "name": "paused",
      "outputs": [
        {
          "internalType": "bool",
          "name": "",
          "type": "bool"
        }
      ],
      "stateMutability": "view",
      "type": "function"
    },
    {
      "inputs": [
        {
          "internalType": "bytes32",
          "name": "role",
          "type": "bytes32"
        },
        {
          "internalType": "address",
          "name": "callerConfirmation",
          "type": "address"
        }
      ],
      "name": "renounceRole",
      "outputs": [],
      "stateMutability": "nonpayable",
      "type": "function"
    },
    {
      "inputs": [
        {
          "internalType": "bytes32",
          "name": "role",
          "type": "bytes32"
        },
        {
          "internalType": "address",
          "name": "account",
          "type": "address"
        }
      ],
      "name": "revokeRole",
      "outputs": [],
      "stateMutability": "nonpayable",
      "type": "function"
    },
    {
      "inputs": [
        {
          "internalType": "address",
          "name": "from",
          "type": "address"
        },
        {
          "internalType": "address",
          "name": "to",
          "type": "address"
        },
        {
          "internalType": "uint256[]",
          "name": "ids",
          "type": "uint256[]"
        },
        {
          "internalType": "uint256[]",
          "name": "values",
          "type": "uint256[]"
        },
        {
          "internalType": "bytes",
          "name": "data",
          "type": "bytes"
        }
      ],
      "name": "safeBatchTransferFrom",
      "outputs": [],
      "stateMutability": "nonpayable",
      "type": "function"
    },
    {
      "inputs": [
        {
          "internalType": "address",
          "name": "from",
          "type": "address"
        },
        {
          "internalType": "address",
          "name": "to",
          "type": "address"
        },
        {
          "internalType": "uint256",
          "name": "id",
          "type": "uint256"
        },
        {
          "internalType": "uint256",
          "name": "value",
          "type": "uint256"
        },
        {
          "internalType": "bytes",
          "name": "data",
          "type": "bytes"
        }
      ],
      "name": "safeTransferFrom",
      "outputs": [],
      "stateMutability": "nonpayable",
      "type": "function"
    },
    {
      "inputs": [],
      "name": "seasonClosed",
      "outputs": [
        {
          "internalType": "bool",
          "name": "",
          "type": "bool"
        }
      ],
      "stateMutability": "view",
      "type": "function"
    },
    {
      "inputs": [],
      "name": "seasonId",
      "outputs": [
        {
          "internalType": "uint256",
          "name": "",
          "type": "uint256"
        }
      ],
      "stateMutability": "view",
      "type": "function"
    },
    {
      "inputs": [
        {
          "internalType": "address",
          "name": "operator",
          "type": "address"
        },
        {
          "internalType": "bool",
          "name": "approved",
          "type": "bool"
        }
      ],
      "name": "setApprovalForAll",
      "outputs": [],
      "stateMutability": "nonpayable",
      "type": "function"
    },
    {
      "inputs": [
        {
          "internalType": "string",
          "name": "newBaseURI",
          "type": "string"
        }
      ],
      "name": "setBaseURI",
      "outputs": [],
      "stateMutability": "nonpayable",
      "type": "function"
    },
    {
      "inputs": [
        {
          "internalType": "string",
          "name": "newContractMetadataURI",
          "type": "string"
        }
      ],
      "name": "setContractMetadataURI",
      "outputs": [],
      "stateMutability": "nonpayable",
      "type": "function"
    },
    {
      "inputs": [
        {
          "internalType": "uint256",
          "name": "newMaxSupply",
          "type": "uint256"
        }
      ],
      "name": "setMaxSupply",
      "outputs": [],
      "stateMutability": "nonpayable",
      "type": "function"
    },
    {
      "inputs": [
        {
          "internalType": "uint256",
          "name": "",
          "type": "uint256"
        }
      ],
      "name": "submissionIdToTokenId",
      "outputs": [
        {
          "internalType": "uint256",
          "name": "",
          "type": "uint256"
        }
      ],
      "stateMutability": "view",
      "type": "function"
    },
    {
      "inputs": [],
      "name": "submissionRegistry",
      "outputs": [
        {
          "internalType": "contract ISpectraSubmissionRegistry",
          "name": "",
          "type": "address"
        }
      ],
      "stateMutability": "view",
      "type": "function"
    },
    {
      "inputs": [
        {
          "internalType": "bytes4",
          "name": "interfaceId",
          "type": "bytes4"
        }
      ],
      "name": "supportsInterface",
      "outputs": [
        {
          "internalType": "bool",
          "name": "",
          "type": "bool"
        }
      ],
      "stateMutability": "view",
      "type": "function"
    },
    {
      "inputs": [],
      "name": "symbol",
      "outputs": [
        {
          "internalType": "string",
          "name": "",
          "type": "string"
        }
      ],
      "stateMutability": "view",
      "type": "function"
    },
    {
      "inputs": [
        {
          "internalType": "uint256",
          "name": "",
          "type": "uint256"
        }
      ],
      "name": "tokenIdToSubmissionId",
      "outputs": [
        {
          "internalType": "uint256",
          "name": "",
          "type": "uint256"
        }
      ],
      "stateMutability": "view",
      "type": "function"
    },
    {
      "inputs": [],
      "name": "totalSupply",
      "outputs": [
        {
          "internalType": "uint256",
          "name": "",
          "type": "uint256"
        }
      ],
      "stateMutability": "view",
      "type": "function"
    },
    {
      "inputs": [
        {
          "internalType": "uint256",
          "name": "id",
          "type": "uint256"
        }
      ],
      "name": "totalSupply",
      "outputs": [
        {
          "internalType": "uint256",
          "name": "",
          "type": "uint256"
        }
      ],
      "stateMutability": "view",
      "type": "function"
    },
    {
      "inputs": [],
      "name": "unpause",
      "outputs": [],
      "stateMutability": "nonpayable",
      "type": "function"
    },
    {
      "inputs": [
        {
          "internalType": "uint256",
          "name": "tokenId",
          "type": "uint256"
        }
      ],
      "name": "uri",
      "outputs": [
        {
          "internalType": "string",
          "name": "",
          "type": "string"
        }
      ],
      "stateMutability": "view",
      "type": "function"
    }
  ],
  "bytecode": "0x60c0604052604051806060016040528060258152602001614f31602591396007908161002b9190610594565b506040518060400160405280600a81526020017f535045435452412d533100000000000000000000000000000000000000000000815250600890816100709190610594565b506001608090815250348015610084575f5ffd5b50604051614f56380380614f5683398181016040528101906100a69190610807565b826100b6816101e360201b60201c565b508373ffffffffffffffffffffffffffffffffffffffff1660a08173ffffffffffffffffffffffffffffffffffffffff168152505081600990816100fa9190610594565b5080600a819055506101145f5f1b866101f660201b60201c565b506101457f65d7a28e3265b37a6474929f336521b332c1681b933f6cb9f3376673440d862a866101f660201b60201c565b506101767fa70a2d8710fed9f014c8c2af50c7c2f6b25748ae4cded822e03b7beed44cf3a8866101f660201b60201c565b506101a77f3a2f235c9daaf33349d300aadff2f15078a89df81bcfdd45ba11c8f816bddc6f866101f660201b60201c565b506101d87f57c4566ed7387d881f62d2e3640ff20a2ddf869c0781ad50ca764bc2c0b88098866101f660201b60201c565b5050505050506108b6565b80600290816101f29190610594565b5050565b5f61020783836102ec60201b60201c565b6102e257600160055f8581526020019081526020015f205f015f8473ffffffffffffffffffffffffffffffffffffffff1673ffffffffffffffffffffffffffffffffffffffff1681526020019081526020015f205f6101000a81548160ff02191690831515021790555061027f61035060201b60201c565b73ffffffffffffffffffffffffffffffffffffffff168273ffffffffffffffffffffffffffffffffffffffff16847f2f8788117e7eff1d82e926ec794901d17c78024a50270940304540a733656f0d60405160405180910390a4600190506102e6565b5f90505b92915050565b5f60055f8481526020019081526020015f205f015f8373ffffffffffffffffffffffffffffffffffffffff1673ffffffffffffffffffffffffffffffffffffffff1681526020019081526020015f205f9054906101000a900460ff16905092915050565b5f33905090565b5f81519050919050565b7f4e487b71000000000000000000000000000000000000000000000000000000005f52604160045260245ffd5b7f4e487b71000000000000000000000000000000000000000000000000000000005f52602260045260245ffd5b5f60028204905060018216806103d257607f821691505b6020821081036103e5576103e461038e565b5b50919050565b5f819050815f5260205f209050919050565b5f6020601f8301049050919050565b5f82821b905092915050565b5f600883026104477fffffffffffffffffffffffffffffffffffffffffffffffffffffffffffffffff8261040c565b610451868361040c565b95508019841693508086168417925050509392505050565b5f819050919050565b5f819050919050565b5f61049561049061048b84610469565b610472565b610469565b9050919050565b5f819050919050565b6104ae8361047b565b6104c26104ba8261049c565b848454610418565b825550505050565b5f5f905090565b6104d96104ca565b6104e48184846104a5565b505050565b5b81811015610507576104fc5f826104d1565b6001810190506104ea565b5050565b601f82111561054c5761051d816103eb565b610526846103fd565b81016020851015610535578190505b610549610541856103fd565b8301826104e9565b50505b505050565b5f82821c905092915050565b5f61056c5f1984600802610551565b1980831691505092915050565b5f610584838361055d565b9150826002028217905092915050565b61059d82610357565b67ffffffffffffffff8111156105b6576105b5610361565b5b6105c082546103bb565b6105cb82828561050b565b5f60209050601f8311600181146105fc575f84156105ea578287015190505b6105f48582610579565b86555061065b565b601f19841661060a866103eb565b5f5b828110156106315784890151825560018201915060208501945060208101905061060c565b8683101561064e578489015161064a601f89168261055d565b8355505b6001600288020188555050505b505050505050565b5f604051905090565b5f5ffd5b5f5ffd5b5f73ffffffffffffffffffffffffffffffffffffffff82169050919050565b5f61069d82610674565b9050919050565b6106ad81610693565b81146106b7575f5ffd5b50565b5f815190506106c8816106a4565b92915050565b5f5ffd5b5f5ffd5b5f601f19601f8301169050919050565b6106ef826106d6565b810181811067ffffffffffffffff8211171561070e5761070d610361565b5b80604052505050565b5f610720610663565b905061072c82826106e6565b919050565b5f67ffffffffffffffff82111561074b5761074a610361565b5b610754826106d6565b9050602081019050919050565b8281835e5f83830152505050565b5f61078161077c84610731565b610717565b90508281526020810184848401111561079d5761079c6106d2565b5b6107a8848285610761565b509392505050565b5f82601f8301126107c4576107c36106ce565b5b81516107d484826020860161076f565b91505092915050565b6107e681610469565b81146107f0575f5ffd5b50565b5f81519050610801816107dd565b92915050565b5f5f5f5f5f60a086880312156108205761081f61066c565b5b5f61082d888289016106ba565b955050602061083e888289016106ba565b945050604086015167ffffffffffffffff81111561085f5761085e610670565b5b61086b888289016107b0565b935050606086015167ffffffffffffffff81111561088c5761088b610670565b5b610898888289016107b0565b92505060806108a9888289016107f3565b9150509295509295909350565b60805160a0516146456108ec5f395f8181610a400152818161104b01526112c401525f8181610849015261142101526146455ff3fe608060405234801561000f575f5ffd5b506004361061025b575f3560e01c80636f8b44b011610144578063bbc67395116100c1578063e63ab1e911610085578063e63ab1e91461070d578063e6571fd61461072b578063e985e9c51461075b578063f242432a1461078b578063f5298aca146107a7578063f7ec31f8146107c35761025b565b8063bbc673951461067d578063bd85b03914610687578063c204642c146106b7578063d547741f146106d3578063d5abeb01146106ef5761025b565b806395d89b411161010857806395d89b41146105d9578063a201fc50146105f7578063a217fddf14610613578063a22cb46514610631578063b4bbb18f1461064d5761025b565b80636f8b44b01461053557806373e92784146105515780637b9dbb7d1461056f5780638456cb591461059f57806391d14854146105a95761025b565b806336568abe116101dd57806355f804b3116101a157806355f804b3146104735780635c975abb1461048f57806360ae055b146104ad578063682d07d9146104dd5780636b20c454146104fb5780636b7e2775146105175761025b565b806336568abe146103cf5780633e10ef38146103eb5780633f4ba83a146104095780634e1273f4146104135780634f558e79146104435761025b565b806318160ddd1161022457806318160ddd1461032b5780631e0fbfa214610349578063248a9ca3146103675780632eb2c2d6146103975780632f2ff15d146103b35761025b565b8062fdd58e1461025f57806301ffc9a71461028f57806304922960146102bf57806306fdde03146102dd5780630e89341c146102fb575b5f5ffd5b610279600480360381019061027491906130ca565b6107e1565b6040516102869190613117565b60405180910390f35b6102a960048036038101906102a49190613185565b610836565b6040516102b691906131ca565b60405180910390f35b6102c7610847565b6040516102d49190613117565b60405180910390f35b6102e561086b565b6040516102f29190613253565b60405180910390f35b61031560048036038101906103109190613273565b6108f7565b6040516103229190613253565b60405180910390f35b610333610932565b6040516103409190613117565b60405180910390f35b61035161093b565b60405161035e91906132b6565b60405180910390f35b610381600480360381019061037c91906132f9565b61095f565b60405161038e91906132b6565b60405180910390f35b6103b160048036038101906103ac9190613514565b61097c565b005b6103cd60048036038101906103c891906135df565b6109a1565b005b6103e960048036038101906103e491906135df565b6109c3565b005b6103f3610a3e565b6040516104009190613678565b60405180910390f35b610411610a62565b005b61042d60048036038101906104289190613751565b610a97565b60405161043a919061387e565b60405180910390f35b61045d60048036038101906104589190613273565b610ba1565b60405161046a91906131ca565b60405180910390f35b61048d600480360381019061048891906138f7565b610bb4565b005b610497610c68565b6040516104a491906131ca565b60405180910390f35b6104c760048036038101906104c29190613273565b610c7d565b6040516104d49190613117565b60405180910390f35b6104e5610c92565b6040516104f291906132b6565b60405180910390f35b61051560048036038101906105109190613942565b610cb6565b005b61051f610d62565b60405161052c91906132b6565b60405180910390f35b61054f600480360381019061054a9190613273565b610d86565b005b610559610d9d565b6040516105669190613253565b60405180910390f35b61058960048036038101906105849190613273565b610e29565b6040516105969190613117565b60405180910390f35b6105a7610e3e565b005b6105c360048036038101906105be91906135df565b610e73565b6040516105d091906131ca565b60405180910390f35b6105e1610ed7565b6040516105ee9190613253565b60405180910390f35b610611600480360381019061060c91906138f7565b610f63565b005b61061b610fdd565b60405161062891906132b6565b60405180910390f35b61064b600480360381019061064691906139f4565b610fe3565b005b61066760048036038101906106629190613273565b610ff9565b6040516106749190613117565b60405180910390f35b610685611395565b005b6106a1600480360381019061069c9190613273565b61146f565b6040516106ae9190613117565b60405180910390f35b6106d160048036038101906106cc9190613a87565b611489565b005b6106ed60048036038101906106e891906135df565b611615565b005b6106f7611637565b6040516107049190613117565b60405180910390f35b61071561163d565b60405161072291906132b6565b60405180910390f35b61074560048036038101906107409190613ae4565b611661565b604051610752919061387e565b60405180910390f35b61077560048036038101906107709190613b0f565b6116f4565b60405161078291906131ca565b60405180910390f35b6107a560048036038101906107a09190613b4d565b611782565b005b6107c160048036038101906107bc9190613be0565b6117a7565b005b6107cb611853565b6040516107d891906131ca565b60405180910390f35b5f5f5f8381526020019081526020015f205f8473ffffffffffffffffffffffffffffffffffffffff1673ffffffffffffffffffffffffffffffffffffffff1681526020019081526020015f2054905092915050565b5f61084082611865565b9050919050565b7f000000000000000000000000000000000000000000000000000000000000000081565b6007805461087890613c5d565b80601f01602080910402602001604051908101604052809291908181526020018280546108a490613c5d565b80156108ef5780601f106108c6576101008083540402835291602001916108ef565b820191905f5260205f20905b8154815290600101906020018083116108d257829003601f168201915b505050505081565b6060610902826118de565b61090b83611970565b60405160200161091c929190613ced565b6040516020818303038152906040529050919050565b5f600454905090565b7f3a2f235c9daaf33349d300aadff2f15078a89df81bcfdd45ba11c8f816bddc6f81565b5f60055f8381526020019081526020015f20600101549050919050565b61098d610987611a3a565b86611a41565b61099a8585858585611acc565b5050505050565b6109aa8261095f565b6109b381611bc2565b6109bd8383611bd6565b50505050565b6109cb611a3a565b73ffffffffffffffffffffffffffffffffffffffff168173ffffffffffffffffffffffffffffffffffffffff1614610a2f576040517f6697b23200000000000000000000000000000000000000000000000000000000815260040160405180910390fd5b610a398282611cc0565b505050565b7f000000000000000000000000000000000000000000000000000000000000000081565b7f65d7a28e3265b37a6474929f336521b332c1681b933f6cb9f3376673440d862a610a8c81611bc2565b610a94611daa565b50565b60608151835114610ae357815183516040517f5b059991000000000000000000000000000000000000000000000000000000008152600401610ada929190613d1f565b60405180910390fd5b5f835167ffffffffffffffff811115610aff57610afe613328565b5b604051908082528060200260200182016040528015610b2d5781602001602082028036833780820191505090505b5090505f5f90505b8451811015610b9657610b6c610b548287611e0b90919063ffffffff16565b610b678387611e1e90919063ffffffff16565b6107e1565b828281518110610b7f57610b7e613d46565b5b602002602001018181525050806001019050610b35565b508091505092915050565b5f5f610bac8361146f565b119050919050565b7fa70a2d8710fed9f014c8c2af50c7c2f6b25748ae4cded822e03b7beed44cf3a8610bde81611bc2565b610c2a83838080601f0160208091040260200160405190810160405280939291908181526020018383808284375f81840152601f19601f82011690508083019250505050505050611e31565b7f6741b2fc379fad678116fe3d4d4b9a1a184ab53ba36b86ad0fa66340b1ab41ad8383604051610c5b929190613d9f565b60405180910390a1505050565b5f60065f9054906101000a900460ff16905090565b600c602052805f5260405f205f915090505481565b7fa70a2d8710fed9f014c8c2af50c7c2f6b25748ae4cded822e03b7beed44cf3a881565b610cbe611a3a565b73ffffffffffffffffffffffffffffffffffffffff168373ffffffffffffffffffffffffffffffffffffffff1614158015610d075750610d0583610d00611a3a565b6116f4565b155b15610d5257610d14611a3a565b836040517fe237d922000000000000000000000000000000000000000000000000000000008152600401610d49929190613dd0565b60405180910390fd5b610d5d838383611e44565b505050565b7f57c4566ed7387d881f62d2e3640ff20a2ddf869c0781ad50ca764bc2c0b8809881565b5f5f1b610d9281611bc2565b81600a819055505050565b60098054610daa90613c5d565b80601f0160208091040260200160405190810160405280929190818152602001828054610dd690613c5d565b8015610e215780601f10610df857610100808354040283529160200191610e21565b820191905f5260205f20905b815481529060010190602001808311610e0457829003601f168201915b505050505081565b600d602052805f5260405f205f915090505481565b7f65d7a28e3265b37a6474929f336521b332c1681b933f6cb9f3376673440d862a610e6881611bc2565b610e70611ed6565b50565b5f60055f8481526020019081526020015f205f015f8373ffffffffffffffffffffffffffffffffffffffff1673ffffffffffffffffffffffffffffffffffffffff1681526020019081526020015f205f9054906101000a900460ff16905092915050565b60088054610ee490613c5d565b80601f0160208091040260200160405190810160405280929190818152602001828054610f1090613c5d565b8015610f5b5780601f10610f3257610100808354040283529160200191610f5b565b820191905f5260205f20905b815481529060010190602001808311610f3e57829003601f168201915b505050505081565b7fa70a2d8710fed9f014c8c2af50c7c2f6b25748ae4cded822e03b7beed44cf3a8610f8d81611bc2565b828260099182610f9e929190613f98565b507f4bad971e573541e528d22030efb9d17c582463e49e6d0f0f0b26c9a7fd291ccd8383604051610fd0929190613d9f565b60405180910390a1505050565b5f5f1b81565b610ff5610fee611a3a565b8383611f38565b5050565b5f611002612111565b600b5f9054906101000a900460ff1615611048576040517f90a5878800000000000000000000000000000000000000000000000000000000815260040160405180910390fd5b5f7f000000000000000000000000000000000000000000000000000000000000000073ffffffffffffffffffffffffffffffffffffffff16633e8686cc846040518263ffffffff1660e01b81526004016110a29190613117565b5f60405180830381865afa1580156110bc573d5f5f3e3d5ffd5b505050506040513d5f823e3d601f19601f820116820180604052508101906110e49190614265565b90508060800151611121576040517f64be8a0000000000000000000000000000000000000000000000000000000000815260040160405180910390fd5b8060a001511561115d576040517f95ec89f200000000000000000000000000000000000000000000000000000000815260040160405180910390fd5b3373ffffffffffffffffffffffffffffffffffffffff16815f015173ffffffffffffffffffffffffffffffffffffffff16146111c5576040517f92a5ad1600000000000000000000000000000000000000000000000000000000815260040160405180910390fd5b5f600a54141580156111e05750600a546111dd610932565b10155b15611217576040517f1302e99c00000000000000000000000000000000000000000000000000000000815260040160405180910390fd5b8291506112353383600160405180602001604052805f815250612152565b82600c5f8481526020019081526020015f208190555081600d5f8581526020019081526020015f2081905550600e5f3373ffffffffffffffffffffffffffffffffffffffff1673ffffffffffffffffffffffffffffffffffffffff1681526020019081526020015f2082908060018154018082558091505060019003905f5260205f20015f90919091909150557f000000000000000000000000000000000000000000000000000000000000000073ffffffffffffffffffffffffffffffffffffffff166354c2cf2984846040518363ffffffff1660e01b815260040161131d929190613d1f565b5f604051808303815f87803b158015611334575f5ffd5b505af1158015611346573d5f5f3e3d5ffd5b505050503373ffffffffffffffffffffffffffffffffffffffff1682847f1f32ff79ae7660703b14b4c58685943bde5283302b6c72bd23f534b0e1768ae060405160405180910390a450919050565b7f57c4566ed7387d881f62d2e3640ff20a2ddf869c0781ad50ca764bc2c0b880986113bf81611bc2565b600b5f9054906101000a900460ff1615611405576040517f90a5878800000000000000000000000000000000000000000000000000000000815260040160405180910390fd5b6001600b5f6101000a81548160ff0219169083151502179055507f00000000000000000000000000000000000000000000000000000000000000007f3439feb0a4b9143ddafd4627e3748730febfd4203c89cb29220ec0a6e1e70c5b60405160405180910390a250565b5f60035f8381526020019081526020015f20549050919050565b7f3a2f235c9daaf33349d300aadff2f15078a89df81bcfdd45ba11c8f816bddc6f6114b381611bc2565b5f8484905090505f81036114f3576040517fe6dcad7700000000000000000000000000000000000000000000000000000000815260040160405180910390fd5b5f5f90505b818110156115d55761154286868381811061151657611515613d46565b5b905060200201602081019061152b9190613ae4565b85600160405180602001604052805f815250612152565b600e5f87878481811061155857611557613d46565b5b905060200201602081019061156d9190613ae4565b73ffffffffffffffffffffffffffffffffffffffff1673ffffffffffffffffffffffffffffffffffffffff1681526020019081526020015f2084908060018154018082558091505060019003905f5260205f20015f90919091909150558060010190506114f8565b50827f0fa3c377438bb545a4c9ecaa3e574d96bb1b2c6416976df85919d2b83a57bd9f826040516116069190613117565b60405180910390a25050505050565b61161e8261095f565b61162781611bc2565b6116318383611cc0565b50505050565b600a5481565b7f65d7a28e3265b37a6474929f336521b332c1681b933f6cb9f3376673440d862a81565b6060600e5f8373ffffffffffffffffffffffffffffffffffffffff1673ffffffffffffffffffffffffffffffffffffffff1681526020019081526020015f208054806020026020016040519081016040528092919081815260200182805480156116e857602002820191905f5260205f20905b8154815260200190600101908083116116d4575b50505050509050919050565b5f60015f8473ffffffffffffffffffffffffffffffffffffffff1673ffffffffffffffffffffffffffffffffffffffff1681526020019081526020015f205f8373ffffffffffffffffffffffffffffffffffffffff1673ffffffffffffffffffffffffffffffffffffffff1681526020019081526020015f205f9054906101000a900460ff16905092915050565b61179361178d611a3a565b86611a41565b6117a085858585856121e8565b5050505050565b6117af611a3a565b73ffffffffffffffffffffffffffffffffffffffff168373ffffffffffffffffffffffffffffffffffffffff16141580156117f857506117f6836117f1611a3a565b6116f4565b155b1561184357611805611a3a565b836040517fe237d92200000000000000000000000000000000000000000000000000000000815260040161183a929190613dd0565b60405180910390fd5b61184e8383836122ef565b505050565b600b5f9054906101000a900460ff1681565b5f7f7965db0b000000000000000000000000000000000000000000000000000000007bffffffffffffffffffffffffffffffffffffffffffffffffffffffff1916827bffffffffffffffffffffffffffffffffffffffffffffffffffffffff191614806118d757506118d682612392565b5b9050919050565b6060600280546118ed90613c5d565b80601f016020809104026020016040519081016040528092919081815260200182805461191990613c5d565b80156119645780601f1061193b57610100808354040283529160200191611964565b820191905f5260205f20905b81548152906001019060200180831161194757829003601f168201915b50505050509050919050565b60605f600161197e84612473565b0190505f8167ffffffffffffffff81111561199c5761199b613328565b5b6040519080825280601f01601f1916602001820160405280156119ce5781602001600182028036833780820191505090505b5090505f82602083010190505b600115611a2f578080600190039150507f3031323334353637383961626364656600000000000000000000000000000000600a86061a8153600a8581611a2457611a236142ac565b5b0494505f85036119db575b819350505050919050565b5f33905090565b8173ffffffffffffffffffffffffffffffffffffffff168173ffffffffffffffffffffffffffffffffffffffff1614158015611a845750611a8281836116f4565b155b15611ac85781816040517fe237d922000000000000000000000000000000000000000000000000000000008152600401611abf929190613dd0565b60405180910390fd5b5050565b5f73ffffffffffffffffffffffffffffffffffffffff168473ffffffffffffffffffffffffffffffffffffffff1603611b3c575f6040517f57f447ce000000000000000000000000000000000000000000000000000000008152600401611b3391906142d9565b60405180910390fd5b5f73ffffffffffffffffffffffffffffffffffffffff168573ffffffffffffffffffffffffffffffffffffffff1603611bac575f6040517f01a83514000000000000000000000000000000000000000000000000000000008152600401611ba391906142d9565b60405180910390fd5b611bbb858585858560016125c4565b5050505050565b611bd381611bce611a3a565b61266e565b50565b5f611be18383610e73565b611cb657600160055f8581526020019081526020015f205f015f8473ffffffffffffffffffffffffffffffffffffffff1673ffffffffffffffffffffffffffffffffffffffff1681526020019081526020015f205f6101000a81548160ff021916908315150217905550611c53611a3a565b73ffffffffffffffffffffffffffffffffffffffff168273ffffffffffffffffffffffffffffffffffffffff16847f2f8788117e7eff1d82e926ec794901d17c78024a50270940304540a733656f0d60405160405180910390a460019050611cba565b5f90505b92915050565b5f611ccb8383610e73565b15611da0575f60055f8581526020019081526020015f205f015f8473ffffffffffffffffffffffffffffffffffffffff1673ffffffffffffffffffffffffffffffffffffffff1681526020019081526020015f205f6101000a81548160ff021916908315150217905550611d3d611a3a565b73ffffffffffffffffffffffffffffffffffffffff168273ffffffffffffffffffffffffffffffffffffffff16847ff6391f5c32d9c69d2a47ea670b442974b53935d1edc7fd64eb21e047a839171b60405160405180910390a460019050611da4565b5f90505b92915050565b611db26126bf565b5f60065f6101000a81548160ff0219169083151502179055507f5db9ee0a495bf2e6ff9c91a7834c1ba4fdd244a5e8aa4e537bd38aeae4b073aa611df4611a3a565b604051611e0191906142d9565b60405180910390a1565b5f60208202602084010151905092915050565b5f60208202602084010151905092915050565b8060029081611e4091906142f2565b5050565b5f73ffffffffffffffffffffffffffffffffffffffff168373ffffffffffffffffffffffffffffffffffffffff1603611eb4575f6040517f01a83514000000000000000000000000000000000000000000000000000000008152600401611eab91906142d9565b60405180910390fd5b611ed1835f848460405180602001604052805f81525060016125c4565b505050565b611ede612111565b600160065f6101000a81548160ff0219169083151502179055507f62e78cea01bee320cd4e420270b5ea74000d11b0c9f74754ebdbfc544b05a258611f21611a3a565b604051611f2e91906142d9565b60405180910390a1565b5f73ffffffffffffffffffffffffffffffffffffffff168373ffffffffffffffffffffffffffffffffffffffff1603611fa8575f6040517f3e31884e000000000000000000000000000000000000000000000000000000008152600401611f9f91906142d9565b60405180910390fd5b5f73ffffffffffffffffffffffffffffffffffffffff168273ffffffffffffffffffffffffffffffffffffffff1603612018575f6040517fced3e10000000000000000000000000000000000000000000000000000000000815260040161200f91906142d9565b60405180910390fd5b8060015f8573ffffffffffffffffffffffffffffffffffffffff1673ffffffffffffffffffffffffffffffffffffffff1681526020019081526020015f205f8473ffffffffffffffffffffffffffffffffffffffff1673ffffffffffffffffffffffffffffffffffffffff1681526020019081526020015f205f6101000a81548160ff0219169083151502179055508173ffffffffffffffffffffffffffffffffffffffff168373ffffffffffffffffffffffffffffffffffffffff167f17307eab39ab6107e8899845ad3d59bd9653f200f220920489ca2b5937696c318360405161210491906131ca565b60405180910390a3505050565b612119610c68565b15612150576040517fd93c066500000000000000000000000000000000000000000000000000000000815260040160405180910390fd5b565b5f73ffffffffffffffffffffffffffffffffffffffff168473ffffffffffffffffffffffffffffffffffffffff16036121c2575f6040517f57f447ce0000000000000000000000000000000000000000000000000000000081526004016121b991906142d9565b60405180910390fd5b5f5f6121ce85856126ff565b915091506121e05f878484875f6125c4565b505050505050565b5f73ffffffffffffffffffffffffffffffffffffffff168473ffffffffffffffffffffffffffffffffffffffff1603612258575f6040517f57f447ce00000000000000000000000000000000000000000000000000000000815260040161224f91906142d9565b60405180910390fd5b5f73ffffffffffffffffffffffffffffffffffffffff168573ffffffffffffffffffffffffffffffffffffffff16036122c8575f6040517f01a835140000000000000000000000000000000000000000000000000000000081526004016122bf91906142d9565b60405180910390fd5b5f5f6122d485856126ff565b915091506122e687878484875f6125c4565b50505050505050565b5f73ffffffffffffffffffffffffffffffffffffffff168373ffffffffffffffffffffffffffffffffffffffff160361235f575f6040517f01a8351400000000000000000000000000000000000000000000000000000000815260040161235691906142d9565b60405180910390fd5b5f5f61236b84846126ff565b9150915061238b855f848460405180602001604052805f8152505f6125c4565b5050505050565b5f7fd9b67a26000000000000000000000000000000000000000000000000000000007bffffffffffffffffffffffffffffffffffffffffffffffffffffffff1916827bffffffffffffffffffffffffffffffffffffffffffffffffffffffff1916148061245c57507f0e89341c000000000000000000000000000000000000000000000000000000007bffffffffffffffffffffffffffffffffffffffffffffffffffffffff1916827bffffffffffffffffffffffffffffffffffffffffffffffffffffffff1916145b8061246c575061246b8261272f565b5b9050919050565b5f5f5f90507a184f03e93ff9f4daa797ed6e38ed64bf6a1f01000000000000000083106124cf577a184f03e93ff9f4daa797ed6e38ed64bf6a1f01000000000000000083816124c5576124c46142ac565b5b0492506040810190505b6d04ee2d6d415b85acef8100000000831061250c576d04ee2d6d415b85acef81000000008381612502576125016142ac565b5b0492506020810190505b662386f26fc10000831061253b57662386f26fc100008381612531576125306142ac565b5b0492506010810190505b6305f5e1008310612564576305f5e100838161255a576125596142ac565b5b0492506008810190505b612710831061258957612710838161257f5761257e6142ac565b5b0492506004810190505b606483106125ac57606483816125a2576125a16142ac565b5b0492506002810190505b600a83106125bb576001810190505b80915050919050565b6125d086868686612798565b5f73ffffffffffffffffffffffffffffffffffffffff168573ffffffffffffffffffffffffffffffffffffffff1614612666575f61260c611a3a565b90508115612627576126228188888888886127b2565b612664565b5f61263b5f87611e1e90919063ffffffff16565b90505f6126515f87611e1e90919063ffffffff16565b9050612661838a8a85858a612961565b50505b505b505050505050565b6126788282610e73565b6126bb5780826040517fe2517d3f0000000000000000000000000000000000000000000000000000000081526004016126b29291906143c1565b60405180910390fd5b5050565b6126c7610c68565b6126fd576040517f8dfc202b00000000000000000000000000000000000000000000000000000000815260040160405180910390fd5b565b60608060405191506001825283602083015260408201905060018152826020820152604081016040529250929050565b5f7f01ffc9a7000000000000000000000000000000000000000000000000000000007bffffffffffffffffffffffffffffffffffffffffffffffffffffffff1916827bffffffffffffffffffffffffffffffffffffffffffffffffffffffff1916149050919050565b6127a0612111565b6127ac84848484612b10565b50505050565b5f8473ffffffffffffffffffffffffffffffffffffffff163b1115612959578373ffffffffffffffffffffffffffffffffffffffff1663bc197c8187878686866040518663ffffffff1660e01b815260040161281295949392919061443a565b6020604051808303815f875af192505050801561284d57506040513d601f19601f8201168201806040525081019061284a91906144b4565b60015b6128ce573d805f811461287b576040519150601f19603f3d011682016040523d82523d5f602084013e612880565b606091505b505f8151036128c657846040517f57f447ce0000000000000000000000000000000000000000000000000000000081526004016128bd91906142d9565b60405180910390fd5b805160208201fd5b63bc197c8160e01b7bffffffffffffffffffffffffffffffffffffffffffffffffffffffff1916817bffffffffffffffffffffffffffffffffffffffffffffffffffffffff19161461295757846040517f57f447ce00000000000000000000000000000000000000000000000000000000815260040161294e91906142d9565b60405180910390fd5b505b505050505050565b5f8473ffffffffffffffffffffffffffffffffffffffff163b1115612b08578373ffffffffffffffffffffffffffffffffffffffff1663f23a6e6187878686866040518663ffffffff1660e01b81526004016129c19594939291906144df565b6020604051808303815f875af19250505080156129fc57506040513d601f19601f820116820180604052508101906129f991906144b4565b60015b612a7d573d805f8114612a2a576040519150601f19603f3d011682016040523d82523d5f602084013e612a2f565b606091505b505f815103612a7557846040517f57f447ce000000000000000000000000000000000000000000000000000000008152600401612a6c91906142d9565b60405180910390fd5b805160208201fd5b63f23a6e6160e01b7bffffffffffffffffffffffffffffffffffffffffffffffffffffffff1916817bffffffffffffffffffffffffffffffffffffffffffffffffffffffff191614612b0657846040517f57f447ce000000000000000000000000000000000000000000000000000000008152600401612afd91906142d9565b60405180910390fd5b505b505050505050565b612b1c84848484612c99565b5f73ffffffffffffffffffffffffffffffffffffffff168473ffffffffffffffffffffffffffffffffffffffff1603612be5575f5f90505f5f90505b8351811015612bca575f612b758285611e1e90919063ffffffff16565b90508060035f612b8e8589611e1e90919063ffffffff16565b81526020019081526020015f205f828254612ba99190614564565b925050819055508083612bbc9190614564565b925050806001019050612b58565b508060045f828254612bdc9190614564565b92505081905550505b5f73ffffffffffffffffffffffffffffffffffffffff168373ffffffffffffffffffffffffffffffffffffffff1603612c93575f5f90505f5f90505b8351811015612c81575f612c3e8285611e1e90919063ffffffff16565b90508060035f612c578589611e1e90919063ffffffff16565b81526020019081526020015f205f8282540392505081905550808301925050806001019050612c21565b508060045f8282540392505081905550505b50505050565b8051825114612ce357815181516040517f5b059991000000000000000000000000000000000000000000000000000000008152600401612cda929190613d1f565b60405180910390fd5b5f612cec611a3a565b90505f5f90505b8351811015612eeb575f612d108286611e1e90919063ffffffff16565b90505f612d268386611e1e90919063ffffffff16565b90505f73ffffffffffffffffffffffffffffffffffffffff168873ffffffffffffffffffffffffffffffffffffffff1614612e49575f5f5f8481526020019081526020015f205f8a73ffffffffffffffffffffffffffffffffffffffff1673ffffffffffffffffffffffffffffffffffffffff1681526020019081526020015f2054905081811015612df557888183856040517f03dee4c5000000000000000000000000000000000000000000000000000000008152600401612dec9493929190614597565b60405180910390fd5b8181035f5f8581526020019081526020015f205f8b73ffffffffffffffffffffffffffffffffffffffff1673ffffffffffffffffffffffffffffffffffffffff1681526020019081526020015f2081905550505b5f73ffffffffffffffffffffffffffffffffffffffff168773ffffffffffffffffffffffffffffffffffffffff1614612ede57805f5f8481526020019081526020015f205f8973ffffffffffffffffffffffffffffffffffffffff1673ffffffffffffffffffffffffffffffffffffffff1681526020019081526020015f205f828254612ed69190614564565b925050819055505b5050806001019050612cf3565b506001835103612fa6575f612f095f85611e1e90919063ffffffff16565b90505f612f1f5f85611e1e90919063ffffffff16565b90508573ffffffffffffffffffffffffffffffffffffffff168773ffffffffffffffffffffffffffffffffffffffff168473ffffffffffffffffffffffffffffffffffffffff167fc3d58168c5ae7397731d063d5bbf3d657854427343f4c083240f7aacaa2d0f628585604051612f97929190613d1f565b60405180910390a45050613025565b8373ffffffffffffffffffffffffffffffffffffffff168573ffffffffffffffffffffffffffffffffffffffff168273ffffffffffffffffffffffffffffffffffffffff167f4a39dc06d4c0dbc64b70af90fd698a233a518aa5d07e595d983b8c0526c8f7fb868660405161301c9291906145da565b60405180910390a45b5050505050565b5f604051905090565b5f5ffd5b5f5ffd5b5f73ffffffffffffffffffffffffffffffffffffffff82169050919050565b5f6130668261303d565b9050919050565b6130768161305c565b8114613080575f5ffd5b50565b5f813590506130918161306d565b92915050565b5f819050919050565b6130a981613097565b81146130b3575f5ffd5b50565b5f813590506130c4816130a0565b92915050565b5f5f604083850312156130e0576130df613035565b5b5f6130ed85828601613083565b92505060206130fe858286016130b6565b9150509250929050565b61311181613097565b82525050565b5f60208201905061312a5f830184613108565b92915050565b5f7fffffffff0000000000000000000000000000000000000000000000000000000082169050919050565b61316481613130565b811461316e575f5ffd5b50565b5f8135905061317f8161315b565b92915050565b5f6020828403121561319a57613199613035565b5b5f6131a784828501613171565b91505092915050565b5f8115159050919050565b6131c4816131b0565b82525050565b5f6020820190506131dd5f8301846131bb565b92915050565b5f81519050919050565b5f82825260208201905092915050565b8281835e5f83830152505050565b5f601f19601f8301169050919050565b5f613225826131e3565b61322f81856131ed565b935061323f8185602086016131fd565b6132488161320b565b840191505092915050565b5f6020820190508181035f83015261326b818461321b565b905092915050565b5f6020828403121561328857613287613035565b5b5f613295848285016130b6565b91505092915050565b5f819050919050565b6132b08161329e565b82525050565b5f6020820190506132c95f8301846132a7565b92915050565b6132d88161329e565b81146132e2575f5ffd5b50565b5f813590506132f3816132cf565b92915050565b5f6020828403121561330e5761330d613035565b5b5f61331b848285016132e5565b91505092915050565b5f5ffd5b7f4e487b71000000000000000000000000000000000000000000000000000000005f52604160045260245ffd5b61335e8261320b565b810181811067ffffffffffffffff8211171561337d5761337c613328565b5b80604052505050565b5f61338f61302c565b905061339b8282613355565b919050565b5f67ffffffffffffffff8211156133ba576133b9613328565b5b602082029050602081019050919050565b5f5ffd5b5f6133e16133dc846133a0565b613386565b90508083825260208201905060208402830185811115613404576134036133cb565b5b835b8181101561342d578061341988826130b6565b845260208401935050602081019050613406565b5050509392505050565b5f82601f83011261344b5761344a613324565b5b813561345b8482602086016133cf565b91505092915050565b5f5ffd5b5f67ffffffffffffffff82111561348257613481613328565b5b61348b8261320b565b9050602081019050919050565b828183375f83830152505050565b5f6134b86134b384613468565b613386565b9050828152602081018484840111156134d4576134d3613464565b5b6134df848285613498565b509392505050565b5f82601f8301126134fb576134fa613324565b5b813561350b8482602086016134a6565b91505092915050565b5f5f5f5f5f60a0868803121561352d5761352c613035565b5b5f61353a88828901613083565b955050602061354b88828901613083565b945050604086013567ffffffffffffffff81111561356c5761356b613039565b5b61357888828901613437565b935050606086013567ffffffffffffffff81111561359957613598613039565b5b6135a588828901613437565b925050608086013567ffffffffffffffff8111156135c6576135c5613039565b5b6135d2888289016134e7565b9150509295509295909350565b5f5f604083850312156135f5576135f4613035565b5b5f613602858286016132e5565b925050602061361385828601613083565b9150509250929050565b5f819050919050565b5f61364061363b6136368461303d565b61361d565b61303d565b9050919050565b5f61365182613626565b9050919050565b5f61366282613647565b9050919050565b61367281613658565b82525050565b5f60208201905061368b5f830184613669565b92915050565b5f67ffffffffffffffff8211156136ab576136aa613328565b5b602082029050602081019050919050565b5f6136ce6136c984613691565b613386565b905080838252602082019050602084028301858111156136f1576136f06133cb565b5b835b8181101561371a57806137068882613083565b8452602084019350506020810190506136f3565b5050509392505050565b5f82601f83011261373857613737613324565b5b81356137488482602086016136bc565b91505092915050565b5f5f6040838503121561376757613766613035565b5b5f83013567ffffffffffffffff81111561378457613783613039565b5b61379085828601613724565b925050602083013567ffffffffffffffff8111156137b1576137b0613039565b5b6137bd85828601613437565b9150509250929050565b5f81519050919050565b5f82825260208201905092915050565b5f819050602082019050919050565b6137f981613097565b82525050565b5f61380a83836137f0565b60208301905092915050565b5f602082019050919050565b5f61382c826137c7565b61383681856137d1565b9350613841836137e1565b805f5b8381101561387157815161385888826137ff565b975061386383613816565b925050600181019050613844565b5085935050505092915050565b5f6020820190508181035f8301526138968184613822565b905092915050565b5f5ffd5b5f5f83601f8401126138b7576138b6613324565b5b8235905067ffffffffffffffff8111156138d4576138d361389e565b5b6020830191508360018202830111156138f0576138ef6133cb565b5b9250929050565b5f5f6020838503121561390d5761390c613035565b5b5f83013567ffffffffffffffff81111561392a57613929613039565b5b613936858286016138a2565b92509250509250929050565b5f5f5f6060848603121561395957613958613035565b5b5f61396686828701613083565b935050602084013567ffffffffffffffff81111561398757613986613039565b5b61399386828701613437565b925050604084013567ffffffffffffffff8111156139b4576139b3613039565b5b6139c086828701613437565b9150509250925092565b6139d3816131b0565b81146139dd575f5ffd5b50565b5f813590506139ee816139ca565b92915050565b5f5f60408385031215613a0a57613a09613035565b5b5f613a1785828601613083565b9250506020613a28858286016139e0565b9150509250929050565b5f5f83601f840112613a4757613a46613324565b5b8235905067ffffffffffffffff811115613a6457613a6361389e565b5b602083019150836020820283011115613a8057613a7f6133cb565b5b9250929050565b5f5f5f60408486031215613a9e57613a9d613035565b5b5f84013567ffffffffffffffff811115613abb57613aba613039565b5b613ac786828701613a32565b93509350506020613ada868287016130b6565b9150509250925092565b5f60208284031215613af957613af8613035565b5b5f613b0684828501613083565b91505092915050565b5f5f60408385031215613b2557613b24613035565b5b5f613b3285828601613083565b9250506020613b4385828601613083565b9150509250929050565b5f5f5f5f5f60a08688031215613b6657613b65613035565b5b5f613b7388828901613083565b9550506020613b8488828901613083565b9450506040613b95888289016130b6565b9350506060613ba6888289016130b6565b925050608086013567ffffffffffffffff811115613bc757613bc6613039565b5b613bd3888289016134e7565b9150509295509295909350565b5f5f5f60608486031215613bf757613bf6613035565b5b5f613c0486828701613083565b9350506020613c15868287016130b6565b9250506040613c26868287016130b6565b9150509250925092565b7f4e487b71000000000000000000000000000000000000000000000000000000005f52602260045260245ffd5b5f6002820490506001821680613c7457607f821691505b602082108103613c8757613c86613c30565b5b50919050565b5f81905092915050565b5f613ca1826131e3565b613cab8185613c8d565b9350613cbb8185602086016131fd565b80840191505092915050565b7f2e6a736f6e000000000000000000000000000000000000000000000000000000815250565b5f613cf88285613c97565b9150613d048284613c97565b9150613d0f82613cc7565b6005820191508190509392505050565b5f604082019050613d325f830185613108565b613d3f6020830184613108565b9392505050565b7f4e487b71000000000000000000000000000000000000000000000000000000005f52603260045260245ffd5b5f613d7e83856131ed565b9350613d8b838584613498565b613d948361320b565b840190509392505050565b5f6020820190508181035f830152613db8818486613d73565b90509392505050565b613dca8161305c565b82525050565b5f604082019050613de35f830185613dc1565b613df06020830184613dc1565b9392505050565b5f82905092915050565b5f819050815f5260205f209050919050565b5f6020601f8301049050919050565b5f82821b905092915050565b5f60088302613e5d7fffffffffffffffffffffffffffffffffffffffffffffffffffffffffffffffff82613e22565b613e678683613e22565b95508019841693508086168417925050509392505050565b5f613e99613e94613e8f84613097565b61361d565b613097565b9050919050565b5f819050919050565b613eb283613e7f565b613ec6613ebe82613ea0565b848454613e2e565b825550505050565b5f5f905090565b613edd613ece565b613ee8818484613ea9565b505050565b5b81811015613f0b57613f005f82613ed5565b600181019050613eee565b5050565b601f821115613f5057613f2181613e01565b613f2a84613e13565b81016020851015613f39578190505b613f4d613f4585613e13565b830182613eed565b50505b505050565b5f82821c905092915050565b5f613f705f1984600802613f55565b1980831691505092915050565b5f613f888383613f61565b9150826002028217905092915050565b613fa28383613df7565b67ffffffffffffffff811115613fbb57613fba613328565b5b613fc58254613c5d565b613fd0828285613f0f565b5f601f831160018114613ffd575f8415613feb578287013590505b613ff58582613f7d565b86555061405c565b601f19841661400b86613e01565b5f5b828110156140325784890135825560018201915060208501945060208101905061400d565b8683101561404f578489013561404b601f891682613f61565b8355505b6001600288020188555050505b50505050505050565b5f5ffd5b5f5ffd5b5f8151905061407b8161306d565b92915050565b5f67ffffffffffffffff82169050919050565b61409d81614081565b81146140a7575f5ffd5b50565b5f815190506140b881614094565b92915050565b5f815190506140cc816132cf565b92915050565b5f67ffffffffffffffff8211156140ec576140eb613328565b5b6140f58261320b565b9050602081019050919050565b5f61411461410f846140d2565b613386565b9050828152602081018484840111156141305761412f613464565b5b61413b8482856131fd565b509392505050565b5f82601f83011261415757614156613324565b5b8151614167848260208601614102565b91505092915050565b5f8151905061417e816139ca565b92915050565b5f81519050614192816130a0565b92915050565b5f60e082840312156141ad576141ac614065565b5b6141b760e0613386565b90505f6141c68482850161406d565b5f8301525060206141d9848285016140aa565b60208301525060406141ed848285016140be565b604083015250606082015167ffffffffffffffff81111561421157614210614069565b5b61421d84828501614143565b606083015250608061423184828501614170565b60808301525060a061424584828501614170565b60a08301525060c061425984828501614184565b60c08301525092915050565b5f6020828403121561427a57614279613035565b5b5f82015167ffffffffffffffff81111561429757614296613039565b5b6142a384828501614198565b91505092915050565b7f4e487b71000000000000000000000000000000000000000000000000000000005f52601260045260245ffd5b5f6020820190506142ec5f830184613dc1565b92915050565b6142fb826131e3565b67ffffffffffffffff81111561431457614313613328565b5b61431e8254613c5d565b614329828285613f0f565b5f60209050601f83116001811461435a575f8415614348578287015190505b6143528582613f7d565b8655506143b9565b601f19841661436886613e01565b5f5b8281101561438f5784890151825560018201915060208501945060208101905061436a565b868310156143ac57848901516143a8601f891682613f61565b8355505b6001600288020188555050505b505050505050565b5f6040820190506143d45f830185613dc1565b6143e160208301846132a7565b9392505050565b5f81519050919050565b5f82825260208201905092915050565b5f61440c826143e8565b61441681856143f2565b93506144268185602086016131fd565b61442f8161320b565b840191505092915050565b5f60a08201905061444d5f830188613dc1565b61445a6020830187613dc1565b818103604083015261446c8186613822565b905081810360608301526144808185613822565b905081810360808301526144948184614402565b90509695505050505050565b5f815190506144ae8161315b565b92915050565b5f602082840312156144c9576144c8613035565b5b5f6144d6848285016144a0565b91505092915050565b5f60a0820190506144f25f830188613dc1565b6144ff6020830187613dc1565b61450c6040830186613108565b6145196060830185613108565b818103608083015261452b8184614402565b90509695505050505050565b7f4e487b71000000000000000000000000000000000000000000000000000000005f52601160045260245ffd5b5f61456e82613097565b915061457983613097565b925082820190508082111561459157614590614537565b5b92915050565b5f6080820190506145aa5f830187613dc1565b6145b76020830186613108565b6145c46040830185613108565b6145d16060830184613108565b95945050505050565b5f6040820190508181035f8301526145f28185613822565b905081810360208301526146068184613822565b9050939250505056fea26469706673582212203905498d4f397c61432657341e4df2c0f33755ba831fab9a643210a49391c21964736f6c634300081c00335350454354524120466f756e646572204d656d62657273686970202d20536561736f6e2031",
  "linkReferences": {},
  "deployedLinkReferences": {},
  "immutableReferences": {
    "10697": [
      {
        "length": 32,
        "start": 2121
      },
      {
        "length": 32,
        "start": 5153
      }
    ],
    "10704": [
      {
        "length": 32,
        "start": 2624
      },
      {
        "length": 32,
        "start": 4171
      },
      {
        "length": 32,
        "start": 4804
      }
    ]
  },
  "inputSourceName": "project/contracts/SpectraFounderSeason1_1155.sol",
  "buildInfoId": "solc-0_8_28-6cb688725888a10dae8618516b49f466d311099c"
}