{
  "_format": "hh3-artifact-1",
  "contractName": "AxisEventAccessRegistry",
  "sourceName": "contracts/AxisEventAccessRegistry.sol",
  "abi": [
    {
      "inputs": [
        {
          "internalType": "address",
          "name": "admin",
          "type": "address"
        }
      ],
      "stateMutability": "nonpayable",
      "type": "constructor"
    },
    {
      "inputs": [],
      "name": "AccessControlBadConfirmation",
      "type": "error"
    },
    {
      "inputs": [
        {
          "internalType": "address",
          "name": "account",
          "type": "address"
        },
        {
          "internalType": "bytes32",
          "name": "neededRole",
          "type": "bytes32"
        }
      ],
      "name": "AccessControlUnauthorizedAccount",
      "type": "error"
    },
    {
      "inputs": [],
      "name": "ArrayLengthMismatch",
      "type": "error"
    },
    {
      "inputs": [],
      "name": "EnforcedPause",
      "type": "error"
    },
    {
      "inputs": [],
      "name": "ExpectedPause",
      "type": "error"
    },
    {
      "inputs": [],
      "name": "InvalidAccessRole",
      "type": "error"
    },
    {
      "inputs": [],
      "name": "InvalidAdmin",
      "type": "error"
    },
    {
      "inputs": [],
      "name": "InvalidEvent",
      "type": "error"
    },
    {
      "inputs": [],
      "name": "InvalidWallet",
      "type": "error"
    },
    {
      "anonymous": false,
      "inputs": [
        {
          "indexed": true,
          "internalType": "uint256",
          "name": "eventId",
          "type": "uint256"
        },
        {
          "indexed": true,
          "internalType": "address",
          "name": "wallet",
          "type": "address"
        }
      ],
      "name": "EventAccessCleared",
      "type": "event"
    },
    {
      "anonymous": false,
      "inputs": [
        {
          "indexed": true,
          "internalType": "uint256",
          "name": "eventId",
          "type": "uint256"
        },
        {
          "indexed": true,
          "internalType": "address",
          "name": "wallet",
          "type": "address"
        },
        {
          "indexed": false,
          "internalType": "enum AxisEventAccessRegistry.AccessRole",
          "name": "role",
          "type": "uint8"
        }
      ],
      "name": "EventAccessSet",
      "type": "event"
    },
    {
      "anonymous": false,
      "inputs": [
        {
          "indexed": true,
          "internalType": "uint256",
          "name": "eventId",
          "type": "uint256"
        },
        {
          "indexed": false,
          "internalType": "string",
          "name": "name",
          "type": "string"
        },
        {
          "indexed": false,
          "internalType": "string",
          "name": "metadataURI",
          "type": "string"
        }
      ],
      "name": "EventCreated",
      "type": "event"
    },
    {
      "anonymous": false,
      "inputs": [
        {
          "indexed": true,
          "internalType": "uint256",
          "name": "eventId",
          "type": "uint256"
        }
      ],
      "name": "EventDeactivated",
      "type": "event"
    },
    {
      "anonymous": false,
      "inputs": [
        {
          "indexed": true,
          "internalType": "uint256",
          "name": "eventId",
          "type": "uint256"
        },
        {
          "indexed": false,
          "internalType": "string",
          "name": "name",
          "type": "string"
        },
        {
          "indexed": false,
          "internalType": "string",
          "name": "metadataURI",
          "type": "string"
        },
        {
          "indexed": false,
          "internalType": "bool",
          "name": "active",
          "type": "bool"
        }
      ],
      "name": "EventUpdated",
      "type": "event"
    },
    {
      "anonymous": false,
      "inputs": [
        {
          "indexed": false,
          "internalType": "address",
          "name": "account",
          "type": "address"
        }
      ],
      "name": "Paused",
      "type": "event"
    },
    {
      "anonymous": false,
      "inputs": [
        {
          "indexed": true,
          "internalType": "bytes32",
          "name": "role",
          "type": "bytes32"
        },
        {
          "indexed": true,
          "internalType": "bytes32",
          "name": "previousAdminRole",
          "type": "bytes32"
        },
        {
          "indexed": true,
          "internalType": "bytes32",
          "name": "newAdminRole",
          "type": "bytes32"
        }
      ],
      "name": "RoleAdminChanged",
      "type": "event"
    },
    {
      "anonymous": false,
      "inputs": [
        {
          "indexed": true,
          "internalType": "bytes32",
          "name": "role",
          "type": "bytes32"
        },
        {
          "indexed": true,
          "internalType": "address",
          "name": "account",
          "type": "address"
        },
        {
          "indexed": true,
          "internalType": "address",
          "name": "sender",
          "type": "address"
        }
      ],
      "name": "RoleGranted",
      "type": "event"
    },
    {
      "anonymous": false,
      "inputs": [
        {
          "indexed": true,
          "internalType": "bytes32",
          "name": "role",
          "type": "bytes32"
        },
        {
          "indexed": true,
          "internalType": "address",
          "name": "account",
          "type": "address"
        },
        {
          "indexed": true,
          "internalType": "address",
          "name": "sender",
          "type": "address"
        }
      ],
      "name": "RoleRevoked",
      "type": "event"
    },
    {
      "anonymous": false,
      "inputs": [
        {
          "indexed": false,
          "internalType": "address",
          "name": "account",
          "type": "address"
        }
      ],
      "name": "Unpaused",
      "type": "event"
    },
    {
      "inputs": [],
      "name": "ACCESS_MANAGER_ROLE",
      "outputs": [
        {
          "internalType": "bytes32",
          "name": "",
          "type": "bytes32"
        }
      ],
      "stateMutability": "view",
      "type": "function"
    },
    {
      "inputs": [],
      "name": "DEFAULT_ADMIN_ROLE",
      "outputs": [
        {
          "internalType": "bytes32",
          "name": "",
          "type": "bytes32"
        }
      ],
      "stateMutability": "view",
      "type": "function"
    },
    {
      "inputs": [],
      "name": "EVENT_MANAGER_ROLE",
      "outputs": [
        {
          "internalType": "bytes32",
          "name": "",
          "type": "bytes32"
        }
      ],
      "stateMutability": "view",
      "type": "function"
    },
    {
      "inputs": [],
      "name": "PAUSER_ROLE",
      "outputs": [
        {
          "internalType": "bytes32",
          "name": "",
          "type": "bytes32"
        }
      ],
      "stateMutability": "view",
      "type": "function"
    },
    {
      "inputs": [
        {
          "internalType": "uint256",
          "name": "eventId",
          "type": "uint256"
        },
        {
          "internalType": "address[]",
          "name": "wallets",
          "type": "address[]"
        },
        {
          "internalType": "enum AxisEventAccessRegistry.AccessRole[]",
          "name": "roles",
          "type": "uint8[]"
        }
      ],
      "name": "batchSetAccess",
      "outputs": [],
      "stateMutability": "nonpayable",
      "type": "function"
    },
    {
      "inputs": [
        {
          "internalType": "uint256",
          "name": "eventId",
          "type": "uint256"
        },
        {
          "internalType": "address",
          "name": "wallet",
          "type": "address"
        }
      ],
      "name": "clearAccess",
      "outputs": [],
      "stateMutability": "nonpayable",
      "type": "function"
    },
    {
      "inputs": [
        {
          "internalType": "string",
          "name": "name",
          "type": "string"
        },
        {
          "internalType": "string",
          "name": "metadataURI",
          "type": "string"
        }
      ],
      "name": "createEvent",
      "outputs": [
        {
          "internalType": "uint256",
          "name": "eventId",
          "type": "uint256"
        }
      ],
      "stateMutability": "nonpayable",
      "type": "function"
    },
    {
      "inputs": [
        {
          "internalType": "uint256",
          "name": "eventId",
          "type": "uint256"
        }
      ],
      "name": "deactivateEvent",
      "outputs": [],
      "stateMutability": "nonpayable",
      "type": "function"
    },
    {
      "inputs": [
        {
          "internalType": "uint256",
          "name": "eventId",
          "type": "uint256"
        },
        {
          "internalType": "address",
          "name": "wallet",
          "type": "address"
        }
      ],
      "name": "getAccess",
      "outputs": [
        {
          "internalType": "enum AxisEventAccessRegistry.AccessRole",
          "name": "",
          "type": "uint8"
        }
      ],
      "stateMutability": "view",
      "type": "function"
    },
    {
      "inputs": [
        {
          "internalType": "uint256",
          "name": "eventId",
          "type": "uint256"
        }
      ],
      "name": "getEvent",
      "outputs": [
        {
          "components": [
            {
              "internalType": "string",
              "name": "name",
              "type": "string"
            },
            {
              "internalType": "string",
              "name": "metadataURI",
              "type": "string"
            },
            {
              "internalType": "bool",
              "name": "exists",
              "type": "bool"
            },
            {
              "internalType": "bool",
              "name": "active",
              "type": "bool"
            }
          ],
          "internalType": "struct AxisEventAccessRegistry.EventConfig",
          "name": "",
          "type": "tuple"
        }
      ],
      "stateMutability": "view",
      "type": "function"
    },
    {
      "inputs": [
        {
          "internalType": "bytes32",
          "name": "role",
          "type": "bytes32"
        }
      ],
      "name": "getRoleAdmin",
      "outputs": [
        {
          "internalType": "bytes32",
          "name": "",
          "type": "bytes32"
        }
      ],
      "stateMutability": "view",
      "type": "function"
    },
    {
      "inputs": [
        {
          "internalType": "bytes32",
          "name": "role",
          "type": "bytes32"
        },
        {
          "internalType": "address",
          "name": "account",
          "type": "address"
        }
      ],
      "name": "grantRole",
      "outputs": [],
      "stateMutability": "nonpayable",
      "type": "function"
    },
    {
      "inputs": [
        {
          "internalType": "bytes32",
          "name": "role",
          "type": "bytes32"
        },
        {
          "internalType": "address",
          "name": "account",
          "type": "address"
        }
      ],
      "name": "hasRole",
      "outputs": [
        {
          "internalType": "bool",
          "name": "",
          "type": "bool"
        }
      ],
      "stateMutability": "view",
      "type": "function"
    },
    {
      "inputs": [],
      "name": "nextEventId",
      "outputs": [
        {
          "internalType": "uint256",
          "name": "",
          "type": "uint256"
        }
      ],
      "stateMutability": "view",
      "type": "function"
    },
    {
      "inputs": [],
      "name": "pause",
      "outputs": [],
      "stateMutability": "nonpayable",
      "type": "function"
    },
    {
      "inputs": [],
      "name": "paused",
      "outputs": [
        {
          "internalType": "bool",
          "name": "",
          "type": "bool"
        }
      ],
      "stateMutability": "view",
      "type": "function"
    },
    {
      "inputs": [
        {
          "internalType": "bytes32",
          "name": "role",
          "type": "bytes32"
        },
        {
          "internalType": "address",
          "name": "callerConfirmation",
          "type": "address"
        }
      ],
      "name": "renounceRole",
      "outputs": [],
      "stateMutability": "nonpayable",
      "type": "function"
    },
    {
      "inputs": [
        {
          "internalType": "bytes32",
          "name": "role",
          "type": "bytes32"
        },
        {
          "internalType": "address",
          "name": "account",
          "type": "address"
        }
      ],
      "name": "revokeRole",
      "outputs": [],
      "stateMutability": "nonpayable",
      "type": "function"
    },
    {
      "inputs": [
        {
          "internalType": "uint256",
          "name": "eventId",
          "type": "uint256"
        },
        {
          "internalType": "address",
          "name": "wallet",
          "type": "address"
        },
        {
          "internalType": "enum AxisEventAccessRegistry.AccessRole",
          "name": "role",
          "type": "uint8"
        }
      ],
      "name": "setAccess",
      "outputs": [],
      "stateMutability": "nonpayable",
      "type": "function"
    },
    {
      "inputs": [
        {
          "internalType": "bytes4",
          "name": "interfaceId",
          "type": "bytes4"
        }
      ],
      "name": "supportsInterface",
      "outputs": [
        {
          "internalType": "bool",
          "name": "",
          "type": "bool"
        }
      ],
      "stateMutability": "view",
      "type": "function"
    },
    {
      "inputs": [],
      "name": "unpause",
      "outputs": [],
      "stateMutability": "nonpayable",
      "type": "function"
    },
    {
      "inputs": [
        {
          "internalType": "uint256",
          "name": "eventId",
          "type": "uint256"
        },
        {
          "internalType": "string",
          "name": "name",
          "type": "string"
        },
        {
          "internalType": "string",
          "name": "metadataURI",
          "type": "string"
        },
        {
          "internalType": "bool",
          "name": "active",
          "type": "bool"
        }
      ],
      "name": "updateEvent",
      "outputs": [],
      "stateMutability": "nonpayable",
      "type": "function"
    }
  ],
  "bytecode": "0x60806040526001600255348015610014575f5ffd5b506040516129ff3803806129ff83398181016040528101906100369190610304565b5f73ffffffffffffffffffffffffffffffffffffffff168173ffffffffffffffffffffffffffffffffffffffff160361009b576040517fb5eba9f000000000000000000000000000000000000000000000000000000000815260040160405180910390fd5b6100ad5f5f1b8261014760201b60201c565b506100de7fa961ef34a96635180dfffd0ae574060d6c6af619ce89175a103711bf5ce827088261014760201b60201c565b5061010f7f46f3eccdd88dd62792ae8eed1be7b9b658477566c49fd85b0d08cf44261c92088261014760201b60201c565b506101407f65d7a28e3265b37a6474929f336521b332c1681b933f6cb9f3376673440d862a8261014760201b60201c565b505061032f565b5f610158838361023c60201b60201c565b6102325760015f5f8581526020019081526020015f205f015f8473ffffffffffffffffffffffffffffffffffffffff1673ffffffffffffffffffffffffffffffffffffffff1681526020019081526020015f205f6101000a81548160ff0219169083151502179055506101cf61029f60201b60201c565b73ffffffffffffffffffffffffffffffffffffffff168273ffffffffffffffffffffffffffffffffffffffff16847f2f8788117e7eff1d82e926ec794901d17c78024a50270940304540a733656f0d60405160405180910390a460019050610236565b5f90505b92915050565b5f5f5f8481526020019081526020015f205f015f8373ffffffffffffffffffffffffffffffffffffffff1673ffffffffffffffffffffffffffffffffffffffff1681526020019081526020015f205f9054906101000a900460ff16905092915050565b5f33905090565b5f5ffd5b5f73ffffffffffffffffffffffffffffffffffffffff82169050919050565b5f6102d3826102aa565b9050919050565b6102e3816102c9565b81146102ed575f5ffd5b50565b5f815190506102fe816102da565b92915050565b5f60208284031215610319576103186102a6565b5b5f610326848285016102f0565b91505092915050565b6126c38061033c5f395ff3fe608060405234801561000f575f5ffd5b5060043610610140575f3560e01c806382abda00116100b6578063a217fddf1161007a578063a217fddf1461034a578063a3b546f214610368578063d1762b8214610386578063d547741f146103a2578063e257a94c146103be578063e63ab1e9146103ee57610140565b806382abda00146102a65780638456cb59146102d657806391d14854146102e0578063957a632e146103105780639f9d903a1461032c57610140565b806336568abe1161010857806336568abe146101f85780633f4ba83a14610214578063594868731461021e5780635c975abb1461023c5780636d1884e01461025a5780637e5105ea1461028a57610140565b806301ffc9a7146101445780630d55988514610174578063248a9ca3146101905780632f2ff15d146101c05780633611c436146101dc575b5f5ffd5b61015e60048036038101906101599190611981565b61040c565b60405161016b91906119c6565b60405180910390f35b61018e60048036038101906101899190611ac8565b610485565b005b6101aa60048036038101906101a59190611b8c565b6107dd565b6040516101b79190611bc6565b60405180910390f35b6101da60048036038101906101d59190611c39565b6107f9565b005b6101f660048036038101906101f19190611c9a565b61081b565b005b610212600480360381019061020d9190611c39565b610a2c565b005b61021c610aa7565b005b610226610adc565b6040516102339190611bc6565b60405180910390f35b610244610b00565b60405161025191906119c6565b60405180910390f35b610274600480360381019061026f9190611cea565b610b15565b6040516102819190611dfb565b60405180910390f35b6102a4600480360381019061029f9190611e9a565b610cd4565b005b6102c060048036038101906102bb9190611f3d565b610d9f565b6040516102cd9190611fee565b60405180910390f35b6102de611015565b005b6102fa60048036038101906102f59190611c39565b61104a565b60405161030791906119c6565b60405180910390f35b61032a60048036038101906103259190611cea565b6110ad565b005b610334611139565b6040516103419190612016565b60405180910390f35b61035261113f565b60405161035f9190611bc6565b60405180910390f35b610370611145565b60405161037d9190611bc6565b60405180910390f35b6103a0600480360381019061039b9190611f3d565b611169565b005b6103bc60048036038101906103b79190611c39565b6112ae565b005b6103d860048036038101906103d3919061202f565b6112d0565b6040516103e59190612016565b60405180910390f35b6103f661148c565b6040516104039190611bc6565b60405180910390f35b5f7f7965db0b000000000000000000000000000000000000000000000000000000007bffffffffffffffffffffffffffffffffffffffffffffffffffffffff1916827bffffffffffffffffffffffffffffffffffffffffffffffffffffffff1916148061047e575061047d826114b0565b5b9050919050565b7f46f3eccdd88dd62792ae8eed1be7b9b658477566c49fd85b0d08cf44261c92086104af81611519565b6104b761152d565b8282905085859050146104f6576040517fa24a13a600000000000000000000000000000000000000000000000000000000815260040160405180910390fd5b5f6105008761156e565b90508060020160019054906101000a900460ff1661054a576040517fafb6a7d100000000000000000000000000000000000000000000000000000000815260040160405180910390fd5b5f5f90505b868690508110156107d3575f73ffffffffffffffffffffffffffffffffffffffff16878783818110610584576105836120ad565b5b905060200201602081019061059991906120da565b73ffffffffffffffffffffffffffffffffffffffff16036105e6576040517f23455ba100000000000000000000000000000000000000000000000000000000815260040160405180910390fd5b5f60028111156105f9576105f8611f7b565b5b85858381811061060c5761060b6120ad565b5b90506020020160208101906106219190612105565b600281111561063357610632611f7b565b5b0361066a576040517f7d25e95400000000000000000000000000000000000000000000000000000000815260040160405180910390fd5b84848281811061067d5761067c6120ad565b5b90506020020160208101906106929190612105565b60045f8a81526020019081526020015f205f8989858181106106b7576106b66120ad565b5b90506020020160208101906106cc91906120da565b73ffffffffffffffffffffffffffffffffffffffff1673ffffffffffffffffffffffffffffffffffffffff1681526020019081526020015f205f6101000a81548160ff0219169083600281111561072657610725611f7b565b5b021790555086868281811061073e5761073d6120ad565b5b905060200201602081019061075391906120da565b73ffffffffffffffffffffffffffffffffffffffff16887ff5cc3f317c58d9324c299b88ff70583559f843f52b1c0b69f4dceb5a385a13ab87878581811061079e5761079d6120ad565b5b90506020020160208101906107b39190612105565b6040516107c09190611fee565b60405180910390a380600101905061054f565b5050505050505050565b5f5f5f8381526020019081526020015f20600101549050919050565b610802826107dd565b61080b81611519565b61081583836115ce565b50505050565b7f46f3eccdd88dd62792ae8eed1be7b9b658477566c49fd85b0d08cf44261c920861084581611519565b61084d61152d565b5f73ffffffffffffffffffffffffffffffffffffffff168373ffffffffffffffffffffffffffffffffffffffff16036108b2576040517f23455ba100000000000000000000000000000000000000000000000000000000815260040160405180910390fd5b5f60028111156108c5576108c4611f7b565b5b8260028111156108d8576108d7611f7b565b5b0361090f576040517f7d25e95400000000000000000000000000000000000000000000000000000000815260040160405180910390fd5b5f6109198561156e565b90508060020160019054906101000a900460ff16610963576040517fafb6a7d100000000000000000000000000000000000000000000000000000000815260040160405180910390fd5b8260045f8781526020019081526020015f205f8673ffffffffffffffffffffffffffffffffffffffff1673ffffffffffffffffffffffffffffffffffffffff1681526020019081526020015f205f6101000a81548160ff021916908360028111156109d1576109d0611f7b565b5b02179055508373ffffffffffffffffffffffffffffffffffffffff16857ff5cc3f317c58d9324c299b88ff70583559f843f52b1c0b69f4dceb5a385a13ab85604051610a1d9190611fee565b60405180910390a35050505050565b610a346116b7565b73ffffffffffffffffffffffffffffffffffffffff168173ffffffffffffffffffffffffffffffffffffffff1614610a98576040517f6697b23200000000000000000000000000000000000000000000000000000000815260040160405180910390fd5b610aa282826116be565b505050565b7f65d7a28e3265b37a6474929f336521b332c1681b933f6cb9f3376673440d862a610ad181611519565b610ad96117a7565b50565b7fa961ef34a96635180dfffd0ae574060d6c6af619ce89175a103711bf5ce8270881565b5f60015f9054906101000a900460ff16905090565b610b1d6118fa565b5f60035f8481526020019081526020015f206040518060800160405290815f82018054610b499061215d565b80601f0160208091040260200160405190810160405280929190818152602001828054610b759061215d565b8015610bc05780601f10610b9757610100808354040283529160200191610bc0565b820191905f5260205f20905b815481529060010190602001808311610ba357829003601f168201915b50505050508152602001600182018054610bd99061215d565b80601f0160208091040260200160405190810160405280929190818152602001828054610c059061215d565b8015610c505780601f10610c2757610100808354040283529160200191610c50565b820191905f5260205f20905b815481529060010190602001808311610c3357829003601f168201915b50505050508152602001600282015f9054906101000a900460ff161515151581526020016002820160019054906101000a900460ff16151515158152505090508060400151610ccb576040517fafb6a7d100000000000000000000000000000000000000000000000000000000815260040160405180910390fd5b80915050919050565b7fa961ef34a96635180dfffd0ae574060d6c6af619ce89175a103711bf5ce82708610cfe81611519565b610d0661152d565b5f610d108861156e565b90508686825f019182610d24929190612364565b508484826001019182610d38929190612364565b50828160020160016101000a81548160ff021916908315150217905550877f7bdbd02f488d07ecb554eb86b68f42e317d8fd74424c45bf62239c1adfd8e7ff8888888888604051610d8d95949392919061247b565b60405180910390a25050505050505050565b5f5f73ffffffffffffffffffffffffffffffffffffffff168273ffffffffffffffffffffffffffffffffffffffff1603610e05576040517f23455ba100000000000000000000000000000000000000000000000000000000815260040160405180910390fd5b5f60035f8581526020019081526020015f206040518060800160405290815f82018054610e319061215d565b80601f0160208091040260200160405190810160405280929190818152602001828054610e5d9061215d565b8015610ea85780601f10610e7f57610100808354040283529160200191610ea8565b820191905f5260205f20905b815481529060010190602001808311610e8b57829003601f168201915b50505050508152602001600182018054610ec19061215d565b80601f0160208091040260200160405190810160405280929190818152602001828054610eed9061215d565b8015610f385780601f10610f0f57610100808354040283529160200191610f38565b820191905f5260205f20905b815481529060010190602001808311610f1b57829003601f168201915b50505050508152602001600282015f9054906101000a900460ff161515151581526020016002820160019054906101000a900460ff16151515158152505090508060400151610fb3576040517fafb6a7d100000000000000000000000000000000000000000000000000000000815260040160405180910390fd5b60045f8581526020019081526020015f205f8473ffffffffffffffffffffffffffffffffffffffff1673ffffffffffffffffffffffffffffffffffffffff1681526020019081526020015f205f9054906101000a900460ff1691505092915050565b7f65d7a28e3265b37a6474929f336521b332c1681b933f6cb9f3376673440d862a61103f81611519565b611047611808565b50565b5f5f5f8481526020019081526020015f205f015f8373ffffffffffffffffffffffffffffffffffffffff1673ffffffffffffffffffffffffffffffffffffffff1681526020019081526020015f205f9054906101000a900460ff16905092915050565b7fa961ef34a96635180dfffd0ae574060d6c6af619ce89175a103711bf5ce827086110d781611519565b6110df61152d565b5f6110e98361156e565b90505f8160020160016101000a81548160ff021916908315150217905550827f9bec5b77a290657edefc9defa075c60a874e90f7cc9496853ca9962d58a4ffdd60405160405180910390a2505050565b60025481565b5f5f1b81565b7f46f3eccdd88dd62792ae8eed1be7b9b658477566c49fd85b0d08cf44261c920881565b7f46f3eccdd88dd62792ae8eed1be7b9b658477566c49fd85b0d08cf44261c920861119381611519565b61119b61152d565b5f73ffffffffffffffffffffffffffffffffffffffff168273ffffffffffffffffffffffffffffffffffffffff1603611200576040517f23455ba100000000000000000000000000000000000000000000000000000000815260040160405180910390fd5b6112098361156e565b5060045f8481526020019081526020015f205f8373ffffffffffffffffffffffffffffffffffffffff1673ffffffffffffffffffffffffffffffffffffffff1681526020019081526020015f205f6101000a81549060ff02191690558173ffffffffffffffffffffffffffffffffffffffff16837f3e5ea9bf95ad0688e7bb6447670e7d10c03acc6f9ebe956c15a73d903e5371e760405160405180910390a3505050565b6112b7826107dd565b6112c081611519565b6112ca83836116be565b50505050565b5f7fa961ef34a96635180dfffd0ae574060d6c6af619ce89175a103711bf5ce827086112fb81611519565b61130361152d565b60025f815480929190611315906124ef565b919050559150604051806080016040528087878080601f0160208091040260200160405190810160405280939291908181526020018383808284375f81840152601f19601f82011690508083019250505050505050815260200185858080601f0160208091040260200160405190810160405280939291908181526020018383808284375f81840152601f19601f8201169050808301925050505050505081526020016001151581526020016001151581525060035f8481526020019081526020015f205f820151815f0190816113ec9190612536565b5060208201518160010190816114029190612536565b506040820151816002015f6101000a81548160ff02191690831515021790555060608201518160020160016101000a81548160ff021916908315150217905550905050817fa66af77df260a5c03634cc608c4576078655b434f4b7e128a6e3e7ec733419748787878760405161147b9493929190612605565b60405180910390a250949350505050565b7f65d7a28e3265b37a6474929f336521b332c1681b933f6cb9f3376673440d862a81565b5f7f01ffc9a7000000000000000000000000000000000000000000000000000000007bffffffffffffffffffffffffffffffffffffffffffffffffffffffff1916827bffffffffffffffffffffffffffffffffffffffffffffffffffffffff1916149050919050565b61152a816115256116b7565b611869565b50565b611535610b00565b1561156c576040517fd93c066500000000000000000000000000000000000000000000000000000000815260040160405180910390fd5b565b5f60035f8381526020019081526020015f209050806002015f9054906101000a900460ff166115c9576040517fafb6a7d100000000000000000000000000000000000000000000000000000000815260040160405180910390fd5b919050565b5f6115d9838361104a565b6116ad5760015f5f8581526020019081526020015f205f015f8473ffffffffffffffffffffffffffffffffffffffff1673ffffffffffffffffffffffffffffffffffffffff1681526020019081526020015f205f6101000a81548160ff02191690831515021790555061164a6116b7565b73ffffffffffffffffffffffffffffffffffffffff168273ffffffffffffffffffffffffffffffffffffffff16847f2f8788117e7eff1d82e926ec794901d17c78024a50270940304540a733656f0d60405160405180910390a4600190506116b1565b5f90505b92915050565b5f33905090565b5f6116c9838361104a565b1561179d575f5f5f8581526020019081526020015f205f015f8473ffffffffffffffffffffffffffffffffffffffff1673ffffffffffffffffffffffffffffffffffffffff1681526020019081526020015f205f6101000a81548160ff02191690831515021790555061173a6116b7565b73ffffffffffffffffffffffffffffffffffffffff168273ffffffffffffffffffffffffffffffffffffffff16847ff6391f5c32d9c69d2a47ea670b442974b53935d1edc7fd64eb21e047a839171b60405160405180910390a4600190506117a1565b5f90505b92915050565b6117af6118ba565b5f60015f6101000a81548160ff0219169083151502179055507f5db9ee0a495bf2e6ff9c91a7834c1ba4fdd244a5e8aa4e537bd38aeae4b073aa6117f16116b7565b6040516117fe919061264d565b60405180910390a1565b61181061152d565b6001805f6101000a81548160ff0219169083151502179055507f62e78cea01bee320cd4e420270b5ea74000d11b0c9f74754ebdbfc544b05a2586118526116b7565b60405161185f919061264d565b60405180910390a1565b611873828261104a565b6118b65780826040517fe2517d3f0000000000000000000000000000000000000000000000000000000081526004016118ad929190612666565b60405180910390fd5b5050565b6118c2610b00565b6118f8576040517f8dfc202b00000000000000000000000000000000000000000000000000000000815260040160405180910390fd5b565b604051806080016040528060608152602001606081526020015f151581526020015f151581525090565b5f5ffd5b5f5ffd5b5f7fffffffff0000000000000000000000000000000000000000000000000000000082169050919050565b6119608161192c565b811461196a575f5ffd5b50565b5f8135905061197b81611957565b92915050565b5f6020828403121561199657611995611924565b5b5f6119a38482850161196d565b91505092915050565b5f8115159050919050565b6119c0816119ac565b82525050565b5f6020820190506119d95f8301846119b7565b92915050565b5f819050919050565b6119f1816119df565b81146119fb575f5ffd5b50565b5f81359050611a0c816119e8565b92915050565b5f5ffd5b5f5ffd5b5f5ffd5b5f5f83601f840112611a3357611a32611a12565b5b8235905067ffffffffffffffff811115611a5057611a4f611a16565b5b602083019150836020820283011115611a6c57611a6b611a1a565b5b9250929050565b5f5f83601f840112611a8857611a87611a12565b5b8235905067ffffffffffffffff811115611aa557611aa4611a16565b5b602083019150836020820283011115611ac157611ac0611a1a565b5b9250929050565b5f5f5f5f5f60608688031215611ae157611ae0611924565b5b5f611aee888289016119fe565b955050602086013567ffffffffffffffff811115611b0f57611b0e611928565b5b611b1b88828901611a1e565b9450945050604086013567ffffffffffffffff811115611b3e57611b3d611928565b5b611b4a88828901611a73565b92509250509295509295909350565b5f819050919050565b611b6b81611b59565b8114611b75575f5ffd5b50565b5f81359050611b8681611b62565b92915050565b5f60208284031215611ba157611ba0611924565b5b5f611bae84828501611b78565b91505092915050565b611bc081611b59565b82525050565b5f602082019050611bd95f830184611bb7565b92915050565b5f73ffffffffffffffffffffffffffffffffffffffff82169050919050565b5f611c0882611bdf565b9050919050565b611c1881611bfe565b8114611c22575f5ffd5b50565b5f81359050611c3381611c0f565b92915050565b5f5f60408385031215611c4f57611c4e611924565b5b5f611c5c85828601611b78565b9250506020611c6d85828601611c25565b9150509250929050565b60038110611c83575f5ffd5b50565b5f81359050611c9481611c77565b92915050565b5f5f5f60608486031215611cb157611cb0611924565b5b5f611cbe868287016119fe565b9350506020611ccf86828701611c25565b9250506040611ce086828701611c86565b9150509250925092565b5f60208284031215611cff57611cfe611924565b5b5f611d0c848285016119fe565b91505092915050565b5f81519050919050565b5f82825260208201905092915050565b8281835e5f83830152505050565b5f601f19601f8301169050919050565b5f611d5782611d15565b611d618185611d1f565b9350611d71818560208601611d2f565b611d7a81611d3d565b840191505092915050565b611d8e816119ac565b82525050565b5f608083015f8301518482035f860152611dae8282611d4d565b91505060208301518482036020860152611dc88282611d4d565b9150506040830151611ddd6040860182611d85565b506060830151611df06060860182611d85565b508091505092915050565b5f6020820190508181035f830152611e138184611d94565b905092915050565b5f5f83601f840112611e3057611e2f611a12565b5b8235905067ffffffffffffffff811115611e4d57611e4c611a16565b5b602083019150836001820283011115611e6957611e68611a1a565b5b9250929050565b611e79816119ac565b8114611e83575f5ffd5b50565b5f81359050611e9481611e70565b92915050565b5f5f5f5f5f5f60808789031215611eb457611eb3611924565b5b5f611ec189828a016119fe565b965050602087013567ffffffffffffffff811115611ee257611ee1611928565b5b611eee89828a01611e1b565b9550955050604087013567ffffffffffffffff811115611f1157611f10611928565b5b611f1d89828a01611e1b565b93509350506060611f3089828a01611e86565b9150509295509295509295565b5f5f60408385031215611f5357611f52611924565b5b5f611f60858286016119fe565b9250506020611f7185828601611c25565b9150509250929050565b7f4e487b71000000000000000000000000000000000000000000000000000000005f52602160045260245ffd5b60038110611fb957611fb8611f7b565b5b50565b5f819050611fc982611fa8565b919050565b5f611fd882611fbc565b9050919050565b611fe881611fce565b82525050565b5f6020820190506120015f830184611fdf565b92915050565b612010816119df565b82525050565b5f6020820190506120295f830184612007565b92915050565b5f5f5f5f6040858703121561204757612046611924565b5b5f85013567ffffffffffffffff81111561206457612063611928565b5b61207087828801611e1b565b9450945050602085013567ffffffffffffffff81111561209357612092611928565b5b61209f87828801611e1b565b925092505092959194509250565b7f4e487b71000000000000000000000000000000000000000000000000000000005f52603260045260245ffd5b5f602082840312156120ef576120ee611924565b5b5f6120fc84828501611c25565b91505092915050565b5f6020828403121561211a57612119611924565b5b5f61212784828501611c86565b91505092915050565b7f4e487b71000000000000000000000000000000000000000000000000000000005f52602260045260245ffd5b5f600282049050600182168061217457607f821691505b60208210810361218757612186612130565b5b50919050565b5f82905092915050565b7f4e487b71000000000000000000000000000000000000000000000000000000005f52604160045260245ffd5b5f819050815f5260205f209050919050565b5f6020601f8301049050919050565b5f82821b905092915050565b5f600883026122207fffffffffffffffffffffffffffffffffffffffffffffffffffffffffffffffff826121e5565b61222a86836121e5565b95508019841693508086168417925050509392505050565b5f819050919050565b5f61226561226061225b846119df565b612242565b6119df565b9050919050565b5f819050919050565b61227e8361224b565b61229261228a8261226c565b8484546121f1565b825550505050565b5f5f905090565b6122a961229a565b6122b4818484612275565b505050565b5b818110156122d7576122cc5f826122a1565b6001810190506122ba565b5050565b601f82111561231c576122ed816121c4565b6122f6846121d6565b81016020851015612305578190505b612319612311856121d6565b8301826122b9565b50505b505050565b5f82821c905092915050565b5f61233c5f1984600802612321565b1980831691505092915050565b5f612354838361232d565b9150826002028217905092915050565b61236e838361218d565b67ffffffffffffffff81111561238757612386612197565b5b612391825461215d565b61239c8282856122db565b5f601f8311600181146123c9575f84156123b7578287013590505b6123c18582612349565b865550612428565b601f1984166123d7866121c4565b5f5b828110156123fe578489013582556001820191506020850194506020810190506123d9565b8683101561241b5784890135612417601f89168261232d565b8355505b6001600288020188555050505b50505050505050565b5f82825260208201905092915050565b828183375f83830152505050565b5f61245a8385612431565b9350612467838584612441565b61247083611d3d565b840190509392505050565b5f6060820190508181035f83015261249481878961244f565b905081810360208301526124a981858761244f565b90506124b860408301846119b7565b9695505050505050565b7f4e487b71000000000000000000000000000000000000000000000000000000005f52601160045260245ffd5b5f6124f9826119df565b91507fffffffffffffffffffffffffffffffffffffffffffffffffffffffffffffffff820361252b5761252a6124c2565b5b600182019050919050565b61253f82611d15565b67ffffffffffffffff81111561255857612557612197565b5b612562825461215d565b61256d8282856122db565b5f60209050601f83116001811461259e575f841561258c578287015190505b6125968582612349565b8655506125fd565b601f1984166125ac866121c4565b5f5b828110156125d3578489015182556001820191506020850194506020810190506125ae565b868310156125f057848901516125ec601f89168261232d565b8355505b6001600288020188555050505b505050505050565b5f6040820190508181035f83015261261e81868861244f565b9050818103602083015261263381848661244f565b905095945050505050565b61264781611bfe565b82525050565b5f6020820190506126605f83018461263e565b92915050565b5f6040820190506126795f83018561263e565b6126866020830184611bb7565b939250505056fea264697066735822122083e7a38e0bdbc0656df02905d5f021cab9852de4de6612cb751490eb7cee3af164736f6c634300081c0033",
  "linkReferences": {},
  "deployedLinkReferences": {},
  "immutableReferences": {},
  "inputSourceName": "project/contracts/AxisEventAccessRegistry.sol",
  "buildInfoId": "solc-0_8_28-6cb688725888a10dae8618516b49f466d311099c"
}