{
  "_format": "hh3-artifact-1",
  "contractName": "AxisSeasonRegistry",
  "sourceName": "contracts/AxisSeasonRegistry.sol",
  "abi": [
    {
      "inputs": [
        {
          "internalType": "address",
          "name": "admin",
          "type": "address"
        },
        {
          "internalType": "uint256",
          "name": "seasonId_",
          "type": "uint256"
        },
        {
          "internalType": "string",
          "name": "seasonName_",
          "type": "string"
        }
      ],
      "stateMutability": "nonpayable",
      "type": "constructor"
    },
    {
      "inputs": [],
      "name": "AccessControlBadConfirmation",
      "type": "error"
    },
    {
      "inputs": [
        {
          "internalType": "address",
          "name": "account",
          "type": "address"
        },
        {
          "internalType": "bytes32",
          "name": "neededRole",
          "type": "bytes32"
        }
      ],
      "name": "AccessControlUnauthorizedAccount",
      "type": "error"
    },
    {
      "inputs": [
        {
          "internalType": "uint256",
          "name": "index",
          "type": "uint256"
        },
        {
          "internalType": "uint256",
          "name": "count",
          "type": "uint256"
        }
      ],
      "name": "EpisodeIndexOutOfRange",
      "type": "error"
    },
    {
      "inputs": [],
      "name": "ZeroAddress",
      "type": "error"
    },
    {
      "anonymous": false,
      "inputs": [
        {
          "indexed": true,
          "internalType": "uint256",
          "name": "index",
          "type": "uint256"
        },
        {
          "indexed": false,
          "internalType": "bool",
          "name": "active",
          "type": "bool"
        }
      ],
      "name": "EpisodeActiveChanged",
      "type": "event"
    },
    {
      "anonymous": false,
      "inputs": [
        {
          "indexed": true,
          "internalType": "uint256",
          "name": "index",
          "type": "uint256"
        },
        {
          "indexed": true,
          "internalType": "address",
          "name": "contractAddress",
          "type": "address"
        },
        {
          "indexed": false,
          "internalType": "string",
          "name": "name",
          "type": "string"
        },
        {
          "indexed": false,
          "internalType": "uint256",
          "name": "episodeNumber",
          "type": "uint256"
        }
      ],
      "name": "EpisodeRegistered",
      "type": "event"
    },
    {
      "anonymous": false,
      "inputs": [
        {
          "indexed": true,
          "internalType": "bytes32",
          "name": "role",
          "type": "bytes32"
        },
        {
          "indexed": true,
          "internalType": "bytes32",
          "name": "previousAdminRole",
          "type": "bytes32"
        },
        {
          "indexed": true,
          "internalType": "bytes32",
          "name": "newAdminRole",
          "type": "bytes32"
        }
      ],
      "name": "RoleAdminChanged",
      "type": "event"
    },
    {
      "anonymous": false,
      "inputs": [
        {
          "indexed": true,
          "internalType": "bytes32",
          "name": "role",
          "type": "bytes32"
        },
        {
          "indexed": true,
          "internalType": "address",
          "name": "account",
          "type": "address"
        },
        {
          "indexed": true,
          "internalType": "address",
          "name": "sender",
          "type": "address"
        }
      ],
      "name": "RoleGranted",
      "type": "event"
    },
    {
      "anonymous": false,
      "inputs": [
        {
          "indexed": true,
          "internalType": "bytes32",
          "name": "role",
          "type": "bytes32"
        },
        {
          "indexed": true,
          "internalType": "address",
          "name": "account",
          "type": "address"
        },
        {
          "indexed": true,
          "internalType": "address",
          "name": "sender",
          "type": "address"
        }
      ],
      "name": "RoleRevoked",
      "type": "event"
    },
    {
      "anonymous": false,
      "inputs": [
        {
          "indexed": false,
          "internalType": "string",
          "name": "newName",
          "type": "string"
        }
      ],
      "name": "SeasonNameUpdated",
      "type": "event"
    },
    {
      "inputs": [],
      "name": "DEFAULT_ADMIN_ROLE",
      "outputs": [
        {
          "internalType": "bytes32",
          "name": "",
          "type": "bytes32"
        }
      ],
      "stateMutability": "view",
      "type": "function"
    },
    {
      "inputs": [],
      "name": "REGISTRY_MANAGER_ROLE",
      "outputs": [
        {
          "internalType": "bytes32",
          "name": "",
          "type": "bytes32"
        }
      ],
      "stateMutability": "view",
      "type": "function"
    },
    {
      "inputs": [],
      "name": "episodeCount",
      "outputs": [
        {
          "internalType": "uint256",
          "name": "",
          "type": "uint256"
        }
      ],
      "stateMutability": "view",
      "type": "function"
    },
    {
      "inputs": [],
      "name": "getActiveEpisodes",
      "outputs": [
        {
          "components": [
            {
              "internalType": "address",
              "name": "contractAddress",
              "type": "address"
            },
            {
              "internalType": "string",
              "name": "name",
              "type": "string"
            },
            {
              "internalType": "uint256",
              "name": "episodeNumber",
              "type": "uint256"
            },
            {
              "internalType": "bool",
              "name": "active",
              "type": "bool"
            }
          ],
          "internalType": "struct AxisSeasonRegistry.EpisodeEntry[]",
          "name": "entries",
          "type": "tuple[]"
        },
        {
          "internalType": "uint256[]",
          "name": "indices",
          "type": "uint256[]"
        }
      ],
      "stateMutability": "view",
      "type": "function"
    },
    {
      "inputs": [],
      "name": "getAllEpisodes",
      "outputs": [
        {
          "components": [
            {
              "internalType": "address",
              "name": "contractAddress",
              "type": "address"
            },
            {
              "internalType": "string",
              "name": "name",
              "type": "string"
            },
            {
              "internalType": "uint256",
              "name": "episodeNumber",
              "type": "uint256"
            },
            {
              "internalType": "bool",
              "name": "active",
              "type": "bool"
            }
          ],
          "internalType": "struct AxisSeasonRegistry.EpisodeEntry[]",
          "name": "entries",
          "type": "tuple[]"
        }
      ],
      "stateMutability": "view",
      "type": "function"
    },
    {
      "inputs": [
        {
          "internalType": "uint256",
          "name": "index",
          "type": "uint256"
        }
      ],
      "name": "getEpisode",
      "outputs": [
        {
          "components": [
            {
              "internalType": "address",
              "name": "contractAddress",
              "type": "address"
            },
            {
              "internalType": "string",
              "name": "name",
              "type": "string"
            },
            {
              "internalType": "uint256",
              "name": "episodeNumber",
              "type": "uint256"
            },
            {
              "internalType": "bool",
              "name": "active",
              "type": "bool"
            }
          ],
          "internalType": "struct AxisSeasonRegistry.EpisodeEntry",
          "name": "",
          "type": "tuple"
        }
      ],
      "stateMutability": "view",
      "type": "function"
    },
    {
      "inputs": [
        {
          "internalType": "bytes32",
          "name": "role",
          "type": "bytes32"
        }
      ],
      "name": "getRoleAdmin",
      "outputs": [
        {
          "internalType": "bytes32",
          "name": "",
          "type": "bytes32"
        }
      ],
      "stateMutability": "view",
      "type": "function"
    },
    {
      "inputs": [
        {
          "internalType": "bytes32",
          "name": "role",
          "type": "bytes32"
        },
        {
          "internalType": "address",
          "name": "account",
          "type": "address"
        }
      ],
      "name": "grantRole",
      "outputs": [],
      "stateMutability": "nonpayable",
      "type": "function"
    },
    {
      "inputs": [
        {
          "internalType": "bytes32",
          "name": "role",
          "type": "bytes32"
        },
        {
          "internalType": "address",
          "name": "account",
          "type": "address"
        }
      ],
      "name": "hasRole",
      "outputs": [
        {
          "internalType": "bool",
          "name": "",
          "type": "bool"
        }
      ],
      "stateMutability": "view",
      "type": "function"
    },
    {
      "inputs": [
        {
          "internalType": "address",
          "name": "contractAddress",
          "type": "address"
        },
        {
          "internalType": "string",
          "name": "name",
          "type": "string"
        },
        {
          "internalType": "uint256",
          "name": "episodeNumber",
          "type": "uint256"
        }
      ],
      "name": "registerEpisode",
      "outputs": [
        {
          "internalType": "uint256",
          "name": "index",
          "type": "uint256"
        }
      ],
      "stateMutability": "nonpayable",
      "type": "function"
    },
    {
      "inputs": [
        {
          "internalType": "bytes32",
          "name": "role",
          "type": "bytes32"
        },
        {
          "internalType": "address",
          "name": "callerConfirmation",
          "type": "address"
        }
      ],
      "name": "renounceRole",
      "outputs": [],
      "stateMutability": "nonpayable",
      "type": "function"
    },
    {
      "inputs": [
        {
          "internalType": "bytes32",
          "name": "role",
          "type": "bytes32"
        },
        {
          "internalType": "address",
          "name": "account",
          "type": "address"
        }
      ],
      "name": "revokeRole",
      "outputs": [],
      "stateMutability": "nonpayable",
      "type": "function"
    },
    {
      "inputs": [],
      "name": "seasonId",
      "outputs": [
        {
          "internalType": "uint256",
          "name": "",
          "type": "uint256"
        }
      ],
      "stateMutability": "view",
      "type": "function"
    },
    {
      "inputs": [],
      "name": "seasonName",
      "outputs": [
        {
          "internalType": "string",
          "name": "",
          "type": "string"
        }
      ],
      "stateMutability": "view",
      "type": "function"
    },
    {
      "inputs": [
        {
          "internalType": "uint256",
          "name": "index",
          "type": "uint256"
        },
        {
          "internalType": "bool",
          "name": "active",
          "type": "bool"
        }
      ],
      "name": "setEpisodeActive",
      "outputs": [],
      "stateMutability": "nonpayable",
      "type": "function"
    },
    {
      "inputs": [
        {
          "internalType": "string",
          "name": "name",
          "type": "string"
        }
      ],
      "name": "setSeasonName",
      "outputs": [],
      "stateMutability": "nonpayable",
      "type": "function"
    },
    {
      "inputs": [
        {
          "internalType": "bytes4",
          "name": "interfaceId",
          "type": "bytes4"
        }
      ],
      "name": "supportsInterface",
      "outputs": [
        {
          "internalType": "bool",
          "name": "",
          "type": "bool"
        }
      ],
      "stateMutability": "view",
      "type": "function"
    }
  ],
  "bytecode": "0x60a060405234801561000f575f5ffd5b506040516126b43803806126b483398181016040528101906100319190610433565b5f73ffffffffffffffffffffffffffffffffffffffff168373ffffffffffffffffffffffffffffffffffffffff1603610096576040517fd92e233d00000000000000000000000000000000000000000000000000000000815260040160405180910390fd5b816080818152505080600190816100ad91906106a6565b506100c05f5f1b846100fa60201b60201c565b506100f17ff7a450ef335e1892cb42c8ca72e7242359d7711924b75db5717410da3f614aa3846100fa60201b60201c565b50505050610775565b5f61010b83836101ef60201b60201c565b6101e55760015f5f8581526020019081526020015f205f015f8473ffffffffffffffffffffffffffffffffffffffff1673ffffffffffffffffffffffffffffffffffffffff1681526020019081526020015f205f6101000a81548160ff02191690831515021790555061018261025260201b60201c565b73ffffffffffffffffffffffffffffffffffffffff168273ffffffffffffffffffffffffffffffffffffffff16847f2f8788117e7eff1d82e926ec794901d17c78024a50270940304540a733656f0d60405160405180910390a4600190506101e9565b5f90505b92915050565b5f5f5f8481526020019081526020015f205f015f8373ffffffffffffffffffffffffffffffffffffffff1673ffffffffffffffffffffffffffffffffffffffff1681526020019081526020015f205f9054906101000a900460ff16905092915050565b5f33905090565b5f604051905090565b5f5ffd5b5f5ffd5b5f73ffffffffffffffffffffffffffffffffffffffff82169050919050565b5f6102938261026a565b9050919050565b6102a381610289565b81146102ad575f5ffd5b50565b5f815190506102be8161029a565b92915050565b5f819050919050565b6102d6816102c4565b81146102e0575f5ffd5b50565b5f815190506102f1816102cd565b92915050565b5f5ffd5b5f5ffd5b5f601f19601f8301169050919050565b7f4e487b71000000000000000000000000000000000000000000000000000000005f52604160045260245ffd5b610345826102ff565b810181811067ffffffffffffffff821117156103645761036361030f565b5b80604052505050565b5f610376610259565b9050610382828261033c565b919050565b5f67ffffffffffffffff8211156103a1576103a061030f565b5b6103aa826102ff565b9050602081019050919050565b8281835e5f83830152505050565b5f6103d76103d284610387565b61036d565b9050828152602081018484840111156103f3576103f26102fb565b5b6103fe8482856103b7565b509392505050565b5f82601f83011261041a576104196102f7565b5b815161042a8482602086016103c5565b91505092915050565b5f5f5f6060848603121561044a57610449610262565b5b5f610457868287016102b0565b9350506020610468868287016102e3565b925050604084015167ffffffffffffffff81111561048957610488610266565b5b61049586828701610406565b9150509250925092565b5f81519050919050565b7f4e487b71000000000000000000000000000000000000000000000000000000005f52602260045260245ffd5b5f60028204905060018216806104ed57607f821691505b602082108103610500576104ff6104a9565b5b50919050565b5f819050815f5260205f209050919050565b5f6020601f8301049050919050565b5f82821b905092915050565b5f600883026105627fffffffffffffffffffffffffffffffffffffffffffffffffffffffffffffffff82610527565b61056c8683610527565b95508019841693508086168417925050509392505050565b5f819050919050565b5f6105a76105a261059d846102c4565b610584565b6102c4565b9050919050565b5f819050919050565b6105c08361058d565b6105d46105cc826105ae565b848454610533565b825550505050565b5f5f905090565b6105eb6105dc565b6105f68184846105b7565b505050565b5b818110156106195761060e5f826105e3565b6001810190506105fc565b5050565b601f82111561065e5761062f81610506565b61063884610518565b81016020851015610647578190505b61065b61065385610518565b8301826105fb565b50505b505050565b5f82821c905092915050565b5f61067e5f1984600802610663565b1980831691505092915050565b5f610696838361066f565b9150826002028217905092915050565b6106af8261049f565b67ffffffffffffffff8111156106c8576106c761030f565b5b6106d282546104d6565b6106dd82828561061d565b5f60209050601f83116001811461070e575f84156106fc578287015190505b610706858261068b565b86555061076d565b601f19841661071c86610506565b5f5b828110156107435784890151825560018201915060208501945060208101905061071e565b86831015610760578489015161075c601f89168261066f565b8355505b6001600288020188555050505b505050505050565b608051611f2761078d5f395f6103d70152611f275ff3fe608060405234801561000f575f5ffd5b5060043610610109575f3560e01c80636be153ae116100a0578063a217fddf1161006f578063a217fddf146102ca578063a5d8b1db146102e8578063bd8fde1c14610304578063c010b3d614610322578063d547741f1461034057610109565b80636be153ae1461023f57806387dd08491461025d57806391d148541461027b57806397737e67146102ab57610109565b8063248a9ca3116100dc578063248a9ca3146101bb5780632f2ff15d146101eb57806336568abe1461020757806343651c801461022357610109565b806301ffc9a71461010d578063049229601461013d5780631d6fcbd11461015b57806323a4e5631461018b575b5f5ffd5b61012760048036038101906101229190611273565b61035c565b60405161013491906112b8565b60405180910390f35b6101456103d5565b60405161015291906112e9565b60405180910390f35b610175600480360381019061017091906113e7565b6103f9565b60405161018291906112e9565b60405180910390f35b6101a560048036038101906101a09190611458565b610615565b6040516101b29190611580565b60405180910390f35b6101d560048036038101906101d091906115d3565b610792565b6040516101e2919061160d565b60405180910390f35b61020560048036038101906102009190611626565b6107ae565b005b610221600480360381019061021c9190611626565b6107d0565b005b61023d6004803603810190610238919061168e565b61084b565b005b610247610927565b60405161025491906112e9565b60405180910390f35b61026561092d565b60405161027291906117e7565b60405180910390f35b61029560048036038101906102909190611626565b610ae9565b6040516102a291906112b8565b60405180910390f35b6102b3610b4c565b6040516102c19291906118af565b60405180910390f35b6102d2610dfe565b6040516102df919061160d565b60405180910390f35b61030260048036038101906102fd91906118e4565b610e04565b005b61030c610e60565b604051610319919061160d565b60405180910390f35b61032a610e84565b6040516103379190611977565b60405180910390f35b61035a60048036038101906103559190611626565b610f10565b005b5f7f7965db0b000000000000000000000000000000000000000000000000000000007bffffffffffffffffffffffffffffffffffffffffffffffffffffffff1916827bffffffffffffffffffffffffffffffffffffffffffffffffffffffff191614806103ce57506103cd82610f32565b5b9050919050565b7f000000000000000000000000000000000000000000000000000000000000000081565b5f7ff7a450ef335e1892cb42c8ca72e7242359d7711924b75db5717410da3f614aa361042481610f9b565b5f73ffffffffffffffffffffffffffffffffffffffff168673ffffffffffffffffffffffffffffffffffffffff1603610489576040517fd92e233d00000000000000000000000000000000000000000000000000000000815260040160405180910390fd5b600254915060405180608001604052808773ffffffffffffffffffffffffffffffffffffffff16815260200186868080601f0160208091040260200160405190810160405280939291908181526020018383808284375f81840152601f19601f8201169050808301925050505050505081526020018481526020016001151581525060035f8481526020019081526020015f205f820151815f015f6101000a81548173ffffffffffffffffffffffffffffffffffffffff021916908373ffffffffffffffffffffffffffffffffffffffff16021790555060208201518160010190816105759190611bc1565b50604082015181600201556060820151816003015f6101000a81548160ff02191690831515021790555090505060025f8154809291906105b490611cbd565b91905055508573ffffffffffffffffffffffffffffffffffffffff16827f6ef54f11d337f2ea2239554850aedd1c3f28988e0150b69b1931f939769b985687878760405161060493929190611d3e565b60405180910390a350949350505050565b61061d6111d9565b600254821061066757816002546040517fb5913f4000000000000000000000000000000000000000000000000000000000815260040161065e929190611d6e565b60405180910390fd5b60035f8381526020019081526020015f206040518060800160405290815f82015f9054906101000a900473ffffffffffffffffffffffffffffffffffffffff1673ffffffffffffffffffffffffffffffffffffffff1673ffffffffffffffffffffffffffffffffffffffff1681526020016001820180546106e7906119f1565b80601f0160208091040260200160405190810160405280929190818152602001828054610713906119f1565b801561075e5780601f106107355761010080835404028352916020019161075e565b820191905f5260205f20905b81548152906001019060200180831161074157829003601f168201915b5050505050815260200160028201548152602001600382015f9054906101000a900460ff1615151515815250509050919050565b5f5f5f8381526020019081526020015f20600101549050919050565b6107b782610792565b6107c081610f9b565b6107ca8383610faf565b50505050565b6107d8611098565b73ffffffffffffffffffffffffffffffffffffffff168173ffffffffffffffffffffffffffffffffffffffff161461083c576040517f6697b23200000000000000000000000000000000000000000000000000000000815260040160405180910390fd5b610846828261109f565b505050565b7ff7a450ef335e1892cb42c8ca72e7242359d7711924b75db5717410da3f614aa361087581610f9b565b60025483106108bf57826002546040517fb5913f400000000000000000000000000000000000000000000000000000000081526004016108b6929190611d6e565b60405180910390fd5b8160035f8581526020019081526020015f206003015f6101000a81548160ff021916908315150217905550827fe81c91d39c3c6e622e0c2808e9d580149e4ef92e46a196ea657e53f163616fa38360405161091a91906112b8565b60405180910390a2505050565b60025481565b606060025467ffffffffffffffff81111561094b5761094a611997565b5b60405190808252806020026020018201604052801561098457816020015b6109716111d9565b8152602001906001900390816109695790505b5090505f5f90505b600254811015610ae55760035f8281526020019081526020015f206040518060800160405290815f82015f9054906101000a900473ffffffffffffffffffffffffffffffffffffffff1673ffffffffffffffffffffffffffffffffffffffff1673ffffffffffffffffffffffffffffffffffffffff168152602001600182018054610a16906119f1565b80601f0160208091040260200160405190810160405280929190818152602001828054610a42906119f1565b8015610a8d5780601f10610a6457610100808354040283529160200191610a8d565b820191905f5260205f20905b815481529060010190602001808311610a7057829003601f168201915b5050505050815260200160028201548152602001600382015f9054906101000a900460ff161515151581525050828281518110610acd57610acc611d95565b5b6020026020010181905250808060010191505061098c565b5090565b5f5f5f8481526020019081526020015f205f015f8373ffffffffffffffffffffffffffffffffffffffff1673ffffffffffffffffffffffffffffffffffffffff1681526020019081526020015f205f9054906101000a900460ff16905092915050565b6060805f5f5f90505b600254811015610ba15760035f8281526020019081526020015f206003015f9054906101000a900460ff1615610b94578180610b9090611cbd565b9250505b8080600101915050610b55565b508067ffffffffffffffff811115610bbc57610bbb611997565b5b604051908082528060200260200182016040528015610bf557816020015b610be26111d9565b815260200190600190039081610bda5790505b5092508067ffffffffffffffff811115610c1257610c11611997565b5b604051908082528060200260200182016040528015610c405781602001602082028036833780820191505090505b5091505f5f5f90505b600254811015610df75760035f8281526020019081526020015f206003015f9054906101000a900460ff1615610dea5760035f8281526020019081526020015f206040518060800160405290815f82015f9054906101000a900473ffffffffffffffffffffffffffffffffffffffff1673ffffffffffffffffffffffffffffffffffffffff1673ffffffffffffffffffffffffffffffffffffffff168152602001600182018054610cf9906119f1565b80601f0160208091040260200160405190810160405280929190818152602001828054610d25906119f1565b8015610d705780601f10610d4757610100808354040283529160200191610d70565b820191905f5260205f20905b815481529060010190602001808311610d5357829003601f168201915b5050505050815260200160028201548152602001600382015f9054906101000a900460ff161515151581525050858381518110610db057610daf611d95565b5b602002602001018190525080848381518110610dcf57610dce611d95565b5b6020026020010181815250508180610de690611cbd565b9250505b8080600101915050610c49565b5050509091565b5f5f1b81565b5f5f1b610e1081610f9b565b828260019182610e21929190611dcc565b507fc4fa7d9df39020a9504004867fa1c921fe69c410074c29cfab83aebc5696de8f8383604051610e53929190611e99565b60405180910390a1505050565b7ff7a450ef335e1892cb42c8ca72e7242359d7711924b75db5717410da3f614aa381565b60018054610e91906119f1565b80601f0160208091040260200160405190810160405280929190818152602001828054610ebd906119f1565b8015610f085780601f10610edf57610100808354040283529160200191610f08565b820191905f5260205f20905b815481529060010190602001808311610eeb57829003601f168201915b505050505081565b610f1982610792565b610f2281610f9b565b610f2c838361109f565b50505050565b5f7f01ffc9a7000000000000000000000000000000000000000000000000000000007bffffffffffffffffffffffffffffffffffffffffffffffffffffffff1916827bffffffffffffffffffffffffffffffffffffffffffffffffffffffff1916149050919050565b610fac81610fa7611098565b611188565b50565b5f610fba8383610ae9565b61108e5760015f5f8581526020019081526020015f205f015f8473ffffffffffffffffffffffffffffffffffffffff1673ffffffffffffffffffffffffffffffffffffffff1681526020019081526020015f205f6101000a81548160ff02191690831515021790555061102b611098565b73ffffffffffffffffffffffffffffffffffffffff168273ffffffffffffffffffffffffffffffffffffffff16847f2f8788117e7eff1d82e926ec794901d17c78024a50270940304540a733656f0d60405160405180910390a460019050611092565b5f90505b92915050565b5f33905090565b5f6110aa8383610ae9565b1561117e575f5f5f8581526020019081526020015f205f015f8473ffffffffffffffffffffffffffffffffffffffff1673ffffffffffffffffffffffffffffffffffffffff1681526020019081526020015f205f6101000a81548160ff02191690831515021790555061111b611098565b73ffffffffffffffffffffffffffffffffffffffff168273ffffffffffffffffffffffffffffffffffffffff16847ff6391f5c32d9c69d2a47ea670b442974b53935d1edc7fd64eb21e047a839171b60405160405180910390a460019050611182565b5f90505b92915050565b6111928282610ae9565b6111d55780826040517fe2517d3f0000000000000000000000000000000000000000000000000000000081526004016111cc929190611eca565b60405180910390fd5b5050565b60405180608001604052805f73ffffffffffffffffffffffffffffffffffffffff168152602001606081526020015f81526020015f151581525090565b5f5ffd5b5f5ffd5b5f7fffffffff0000000000000000000000000000000000000000000000000000000082169050919050565b6112528161121e565b811461125c575f5ffd5b50565b5f8135905061126d81611249565b92915050565b5f6020828403121561128857611287611216565b5b5f6112958482850161125f565b91505092915050565b5f8115159050919050565b6112b28161129e565b82525050565b5f6020820190506112cb5f8301846112a9565b92915050565b5f819050919050565b6112e3816112d1565b82525050565b5f6020820190506112fc5f8301846112da565b92915050565b5f73ffffffffffffffffffffffffffffffffffffffff82169050919050565b5f61132b82611302565b9050919050565b61133b81611321565b8114611345575f5ffd5b50565b5f8135905061135681611332565b92915050565b5f5ffd5b5f5ffd5b5f5ffd5b5f5f83601f84011261137d5761137c61135c565b5b8235905067ffffffffffffffff81111561139a57611399611360565b5b6020830191508360018202830111156113b6576113b5611364565b5b9250929050565b6113c6816112d1565b81146113d0575f5ffd5b50565b5f813590506113e1816113bd565b92915050565b5f5f5f5f606085870312156113ff576113fe611216565b5b5f61140c87828801611348565b945050602085013567ffffffffffffffff81111561142d5761142c61121a565b5b61143987828801611368565b9350935050604061144c878288016113d3565b91505092959194509250565b5f6020828403121561146d5761146c611216565b5b5f61147a848285016113d3565b91505092915050565b61148c81611321565b82525050565b5f81519050919050565b5f82825260208201905092915050565b8281835e5f83830152505050565b5f601f19601f8301169050919050565b5f6114d482611492565b6114de818561149c565b93506114ee8185602086016114ac565b6114f7816114ba565b840191505092915050565b61150b816112d1565b82525050565b61151a8161129e565b82525050565b5f608083015f8301516115355f860182611483565b506020830151848203602086015261154d82826114ca565b91505060408301516115626040860182611502565b5060608301516115756060860182611511565b508091505092915050565b5f6020820190508181035f8301526115988184611520565b905092915050565b5f819050919050565b6115b2816115a0565b81146115bc575f5ffd5b50565b5f813590506115cd816115a9565b92915050565b5f602082840312156115e8576115e7611216565b5b5f6115f5848285016115bf565b91505092915050565b611607816115a0565b82525050565b5f6020820190506116205f8301846115fe565b92915050565b5f5f6040838503121561163c5761163b611216565b5b5f611649858286016115bf565b925050602061165a85828601611348565b9150509250929050565b61166d8161129e565b8114611677575f5ffd5b50565b5f8135905061168881611664565b92915050565b5f5f604083850312156116a4576116a3611216565b5b5f6116b1858286016113d3565b92505060206116c28582860161167a565b9150509250929050565b5f81519050919050565b5f82825260208201905092915050565b5f819050602082019050919050565b5f608083015f83015161170a5f860182611483565b506020830151848203602086015261172282826114ca565b91505060408301516117376040860182611502565b50606083015161174a6060860182611511565b508091505092915050565b5f61176083836116f5565b905092915050565b5f602082019050919050565b5f61177e826116cc565b61178881856116d6565b93508360208202850161179a856116e6565b805f5b858110156117d557848403895281516117b68582611755565b94506117c183611768565b925060208a0199505060018101905061179d565b50829750879550505050505092915050565b5f6020820190508181035f8301526117ff8184611774565b905092915050565b5f81519050919050565b5f82825260208201905092915050565b5f819050602082019050919050565b5f61183b8383611502565b60208301905092915050565b5f602082019050919050565b5f61185d82611807565b6118678185611811565b935061187283611821565b805f5b838110156118a25781516118898882611830565b975061189483611847565b925050600181019050611875565b5085935050505092915050565b5f6040820190508181035f8301526118c78185611774565b905081810360208301526118db8184611853565b90509392505050565b5f5f602083850312156118fa576118f9611216565b5b5f83013567ffffffffffffffff8111156119175761191661121a565b5b61192385828601611368565b92509250509250929050565b5f82825260208201905092915050565b5f61194982611492565b611953818561192f565b93506119638185602086016114ac565b61196c816114ba565b840191505092915050565b5f6020820190508181035f83015261198f818461193f565b905092915050565b7f4e487b71000000000000000000000000000000000000000000000000000000005f52604160045260245ffd5b7f4e487b71000000000000000000000000000000000000000000000000000000005f52602260045260245ffd5b5f6002820490506001821680611a0857607f821691505b602082108103611a1b57611a1a6119c4565b5b50919050565b5f819050815f5260205f209050919050565b5f6020601f8301049050919050565b5f82821b905092915050565b5f60088302611a7d7fffffffffffffffffffffffffffffffffffffffffffffffffffffffffffffffff82611a42565b611a878683611a42565b95508019841693508086168417925050509392505050565b5f819050919050565b5f611ac2611abd611ab8846112d1565b611a9f565b6112d1565b9050919050565b5f819050919050565b611adb83611aa8565b611aef611ae782611ac9565b848454611a4e565b825550505050565b5f5f905090565b611b06611af7565b611b11818484611ad2565b505050565b5b81811015611b3457611b295f82611afe565b600181019050611b17565b5050565b601f821115611b7957611b4a81611a21565b611b5384611a33565b81016020851015611b62578190505b611b76611b6e85611a33565b830182611b16565b50505b505050565b5f82821c905092915050565b5f611b995f1984600802611b7e565b1980831691505092915050565b5f611bb18383611b8a565b9150826002028217905092915050565b611bca82611492565b67ffffffffffffffff811115611be357611be2611997565b5b611bed82546119f1565b611bf8828285611b38565b5f60209050601f831160018114611c29575f8415611c17578287015190505b611c218582611ba6565b865550611c88565b601f198416611c3786611a21565b5f5b82811015611c5e57848901518255600182019150602085019450602081019050611c39565b86831015611c7b5784890151611c77601f891682611b8a565b8355505b6001600288020188555050505b505050505050565b7f4e487b71000000000000000000000000000000000000000000000000000000005f52601160045260245ffd5b5f611cc7826112d1565b91507fffffffffffffffffffffffffffffffffffffffffffffffffffffffffffffffff8203611cf957611cf8611c90565b5b600182019050919050565b828183375f83830152505050565b5f611d1d838561192f565b9350611d2a838584611d04565b611d33836114ba565b840190509392505050565b5f6040820190508181035f830152611d57818587611d12565b9050611d6660208301846112da565b949350505050565b5f604082019050611d815f8301856112da565b611d8e60208301846112da565b9392505050565b7f4e487b71000000000000000000000000000000000000000000000000000000005f52603260045260245ffd5b5f82905092915050565b611dd68383611dc2565b67ffffffffffffffff811115611def57611dee611997565b5b611df982546119f1565b611e04828285611b38565b5f601f831160018114611e31575f8415611e1f578287013590505b611e298582611ba6565b865550611e90565b601f198416611e3f86611a21565b5f5b82811015611e6657848901358255600182019150602085019450602081019050611e41565b86831015611e835784890135611e7f601f891682611b8a565b8355505b6001600288020188555050505b50505050505050565b5f6020820190508181035f830152611eb2818486611d12565b90509392505050565b611ec481611321565b82525050565b5f604082019050611edd5f830185611ebb565b611eea60208301846115fe565b939250505056fea2646970667358221220531bbda59edb1aa8cf0f0305d5a597d478f253228aa8d53068e8c4673b6412b764736f6c634300081c0033",
  "linkReferences": {},
  "deployedLinkReferences": {},
  "immutableReferences": {
    "10836": [
      {
        "length": 32,
        "start": 983
      }
    ]
  },
  "inputSourceName": "project/contracts/AxisSeasonRegistry.sol",
  "buildInfoId": "solc-0_8_28-824dcda93910d554f0519868aefe05a3c0d926ad"
}